{
  "abi": [
    {
      "inputs": [
        {
          "internalType": "bytes4",
          "name": "_lang",
          "type": "bytes4"
        },
        {
          "internalType": "bytes4",
          "name": "_type",
          "type": "bytes4"
        }
      ],
      "name": "InvalidLangType",
      "type": "error"
    },
    {
      "inputs": [
        {
          "internalType": "string",
          "name": "_name",
          "type": "string"
        },
        {
          "internalType": "bytes4",
          "name": "_lang",
          "type": "bytes4"
        },
        {
          "internalType": "bytes4",
          "name": "_type",
          "type": "bytes4"
        }
      ],
      "name": "InvalidName",
      "type": "error"
    },
    {
      "inputs": [
        {
          "internalType": "string",
          "name": "_name",
          "type": "string"
        }
      ],
      "name": "NotWrapped",
      "type": "error"
    },
    {
      "anonymous": false,
      "inputs": [
        {
          "indexed": true,
          "internalType": "address",
          "name": "owner",
          "type": "address"
        },
        {
          "indexed": true,
          "internalType": "address",
          "name": "spender",
          "type": "address"
        },
        {
          "indexed": true,
          "internalType": "uint256",
          "name": "id",
          "type": "uint256"
        }
      ],
      "name": "Approval",
      "type": "event"
    },
    {
      "anonymous": false,
      "inputs": [
        {
          "indexed": true,
          "internalType": "address",
          "name": "owner",
          "type": "address"
        },
        {
          "indexed": true,
          "internalType": "address",
          "name": "operator",
          "type": "address"
        },
        {
          "indexed": false,
          "internalType": "bool",
          "name": "approved",
          "type": "bool"
        }
      ],
      "name": "ApprovalForAll",
      "type": "event"
    },
    {
      "anonymous": false,
      "inputs": [
        {
          "indexed": true,
          "internalType": "address",
          "name": "from",
          "type": "address"
        },
        {
          "indexed": false,
          "internalType": "uint256",
          "name": "amount",
          "type": "uint256"
        }
      ],
      "name": "Deposit",
      "type": "event"
    },
    {
      "anonymous": false,
      "inputs": [
        {
          "indexed": true,
          "internalType": "address",
          "name": "previousOwner",
          "type": "address"
        },
        {
          "indexed": true,
          "internalType": "address",
          "name": "newOwner",
          "type": "address"
        }
      ],
      "name": "OwnershipTransferred",
      "type": "event"
    },
    {
      "anonymous": false,
      "inputs": [
        {
          "indexed": true,
          "internalType": "address",
          "name": "from",
          "type": "address"
        },
        {
          "indexed": true,
          "internalType": "address",
          "name": "to",
          "type": "address"
        },
        {
          "indexed": true,
          "internalType": "uint256",
          "name": "id",
          "type": "uint256"
        }
      ],
      "name": "Transfer",
      "type": "event"
    },
    {
      "anonymous": false,
      "inputs": [
        {
          "indexed": true,
          "internalType": "address",
          "name": "to",
          "type": "address"
        },
        {
          "indexed": false,
          "internalType": "uint256",
          "name": "amount",
          "type": "uint256"
        }
      ],
      "name": "Withdrawal",
      "type": "event"
    },
    {
      "inputs": [],
      "name": "DefaultResolver",
      "outputs": [
        {
          "internalType": "address",
          "name": "",
          "type": "address"
        }
      ],
      "stateMutability": "view",
      "type": "function"
    },
    {
      "inputs": [],
      "name": "Dev",
      "outputs": [
        {
          "internalType": "address",
          "name": "",
          "type": "address"
        }
      ],
      "stateMutability": "view",
      "type": "function"
    },
    {
      "inputs": [],
      "name": "ENS",
      "outputs": [
        {
          "internalType": "contract iENS",
          "name": "",
          "type": "address"
        }
      ],
      "stateMutability": "view",
      "type": "function"
    },
    {
      "inputs": [],
      "name": "LNR",
      "outputs": [
        {
          "internalType": "contract iLNR",
          "name": "",
          "type": "address"
        }
      ],
      "stateMutability": "view",
      "type": "function"
    },
    {
      "inputs": [
        {
          "internalType": "uint256",
          "name": "",
          "type": "uint256"
        }
      ],
      "name": "NAME",
      "outputs": [
        {
          "internalType": "uint64",
          "name": "_wrapped",
          "type": "uint64"
        },
        {
          "internalType": "bytes4",
          "name": "_lang",
          "type": "bytes4"
        },
        {
          "internalType": "bytes4",
          "name": "_type",
          "type": "bytes4"
        },
        {
          "internalType": "address",
          "name": "_royalty",
          "type": "address"
        }
      ],
      "stateMutability": "view",
      "type": "function"
    },
    {
      "inputs": [
        {
          "internalType": "bytes32",
          "name": "",
          "type": "bytes32"
        }
      ],
      "name": "NH2ID",
      "outputs": [
        {
          "internalType": "uint256",
          "name": "",
          "type": "uint256"
        }
      ],
      "stateMutability": "view",
      "type": "function"
    },
    {
      "inputs": [
        {
          "internalType": "address",
          "name": "spender",
          "type": "address"
        },
        {
          "internalType": "uint256",
          "name": "id",
          "type": "uint256"
        }
      ],
      "name": "approve",
      "outputs": [],
      "stateMutability": "nonpayable",
      "type": "function"
    },
    {
      "inputs": [
        {
          "internalType": "address",
          "name": "",
          "type": "address"
        }
      ],
      "name": "balanceOf",
      "outputs": [
        {
          "internalType": "uint256",
          "name": "",
          "type": "uint256"
        }
      ],
      "stateMutability": "view",
      "type": "function"
    },
    {
      "inputs": [
        {
          "internalType": "string[]",
          "name": "_names",
          "type": "string[]"
        },
        {
          "internalType": "bytes4",
          "name": "_lang",
          "type": "bytes4"
        },
        {
          "internalType": "bytes4",
          "name": "_type",
          "type": "bytes4"
        }
      ],
      "name": "batchDeposit",
      "outputs": [],
      "stateMutability": "nonpayable",
      "type": "function"
    },
    {
      "inputs": [
        {
          "internalType": "string[]",
          "name": "_names",
          "type": "string[]"
        },
        {
          "internalType": "bytes4",
          "name": "_lang",
          "type": "bytes4"
        },
        {
          "internalType": "bytes4",
          "name": "_type",
          "type": "bytes4"
        }
      ],
      "name": "batchReserve",
      "outputs": [],
      "stateMutability": "nonpayable",
      "type": "function"
    },
    {
      "inputs": [
        {
          "internalType": "bytes4",
          "name": "",
          "type": "bytes4"
        },
        {
          "internalType": "bytes4",
          "name": "",
          "type": "bytes4"
        }
      ],
      "name": "blocks",
      "outputs": [
        {
          "internalType": "address",
          "name": "",
          "type": "address"
        }
      ],
      "stateMutability": "view",
      "type": "function"
    },
    {
      "inputs": [
        {
          "internalType": "address",
          "name": "newDev",
          "type": "address"
        }
      ],
      "name": "changeDev",
      "outputs": [],
      "stateMutability": "nonpayable",
      "type": "function"
    },
    {
      "inputs": [
        {
          "internalType": "string",
          "name": "_name",
          "type": "string"
        },
        {
          "internalType": "bytes4",
          "name": "_lang",
          "type": "bytes4"
        },
        {
          "internalType": "bytes4",
          "name": "_type",
          "type": "bytes4"
        }
      ],
      "name": "checkName",
      "outputs": [
        {
          "internalType": "uint8",
          "name": "len",
          "type": "uint8"
        }
      ],
      "stateMutability": "view",
      "type": "function"
    },
    {
      "inputs": [
        {
          "internalType": "string",
          "name": "_name",
          "type": "string"
        },
        {
          "internalType": "bytes4",
          "name": "_lang",
          "type": "bytes4"
        },
        {
          "internalType": "bytes4",
          "name": "_type",
          "type": "bytes4"
        }
      ],
      "name": "deposit",
      "outputs": [],
      "stateMutability": "nonpayable",
      "type": "function"
    },
    {
      "inputs": [
        {
          "internalType": "uint256",
          "name": "",
          "type": "uint256"
        }
      ],
      "name": "getApproved",
      "outputs": [
        {
          "internalType": "address",
          "name": "",
          "type": "address"
        }
      ],
      "stateMutability": "view",
      "type": "function"
    },
    {
      "inputs": [
        {
          "internalType": "address",
          "name": "",
          "type": "address"
        },
        {
          "internalType": "address",
          "name": "",
          "type": "address"
        }
      ],
      "name": "isApprovedForAll",
      "outputs": [
        {
          "internalType": "bool",
          "name": "",
          "type": "bool"
        }
      ],
      "stateMutability": "view",
      "type": "function"
    },
    {
      "inputs": [
        {
          "internalType": "uint256",
          "name": "",
          "type": "uint256"
        }
      ],
      "name": "isWrapped",
      "outputs": [
        {
          "internalType": "uint256",
          "name": "",
          "type": "uint256"
        }
      ],
      "stateMutability": "view",
      "type": "function"
    },
    {
      "inputs": [
        {
          "internalType": "address",
          "name": "",
          "type": "address"
        }
      ],
      "name": "isWrapper",
      "outputs": [
        {
          "internalType": "bool",
          "name": "",
          "type": "bool"
        }
      ],
      "stateMutability": "view",
      "type": "function"
    },
    {
      "inputs": [
        {
          "internalType": "address",
          "name": "recipient",
          "type": "address"
        }
      ],
      "name": "mintTo",
      "outputs": [
        {
          "internalType": "uint256",
          "name": "",
          "type": "uint256"
        }
      ],
      "stateMutability": "payable",
      "type": "function"
    },
    {
      "inputs": [],
      "name": "name",
      "outputs": [
        {
          "internalType": "string",
          "name": "",
          "type": "string"
        }
      ],
      "stateMutability": "view",
      "type": "function"
    },
    {
      "inputs": [
        {
          "internalType": "uint256",
          "name": "id",
          "type": "uint256"
        }
      ],
      "name": "ownerOf",
      "outputs": [
        {
          "internalType": "address",
          "name": "owner",
          "type": "address"
        }
      ],
      "stateMutability": "view",
      "type": "function"
    },
    {
      "inputs": [
        {
          "internalType": "string",
          "name": "_name",
          "type": "string"
        },
        {
          "internalType": "bytes4",
          "name": "_lang",
          "type": "bytes4"
        },
        {
          "internalType": "bytes4",
          "name": "_type",
          "type": "bytes4"
        }
      ],
      "name": "reserve",
      "outputs": [],
      "stateMutability": "nonpayable",
      "type": "function"
    },
    {
      "inputs": [
        {
          "internalType": "uint256",
          "name": "id",
          "type": "uint256"
        },
        {
          "internalType": "uint256",
          "name": "_salePrice",
          "type": "uint256"
        }
      ],
      "name": "royaltyInfo",
      "outputs": [
        {
          "internalType": "address",
          "name": "to",
          "type": "address"
        },
        {
          "internalType": "uint256",
          "name": "amount",
          "type": "uint256"
        }
      ],
      "stateMutability": "view",
      "type": "function"
    },
    {
      "inputs": [
        {
          "internalType": "address",
          "name": "from",
          "type": "address"
        },
        {
          "internalType": "address",
          "name": "to",
          "type": "address"
        },
        {
          "internalType": "uint256",
          "name": "id",
          "type": "uint256"
        }
      ],
      "name": "safeTransferFrom",
      "outputs": [],
      "stateMutability": "nonpayable",
      "type": "function"
    },
    {
      "inputs": [
        {
          "internalType": "address",
          "name": "from",
          "type": "address"
        },
        {
          "internalType": "address",
          "name": "to",
          "type": "address"
        },
        {
          "internalType": "uint256",
          "name": "id",
          "type": "uint256"
        },
        {
          "internalType": "bytes",
          "name": "data",
          "type": "bytes"
        }
      ],
      "name": "safeTransferFrom",
      "outputs": [],
      "stateMutability": "nonpayable",
      "type": "function"
    },
    {
      "inputs": [
        {
          "internalType": "address",
          "name": "operator",
          "type": "address"
        },
        {
          "internalType": "bool",
          "name": "approved",
          "type": "bool"
        }
      ],
      "name": "setApprovalForAll",
      "outputs": [],
      "stateMutability": "nonpayable",
      "type": "function"
    },
    {
      "inputs": [
        {
          "internalType": "bytes4",
          "name": "sig",
          "type": "bytes4"
        },
        {
          "internalType": "bool",
          "name": "value",
          "type": "bool"
        }
      ],
      "name": "setInterface",
      "outputs": [],
      "stateMutability": "payable",
      "type": "function"
    },
    {
      "inputs": [
        {
          "internalType": "string",
          "name": "_name",
          "type": "string"
        },
        {
          "internalType": "bytes4",
          "name": "_lang",
          "type": "bytes4"
        },
        {
          "internalType": "bytes4",
          "name": "_type",
          "type": "bytes4"
        }
      ],
      "name": "softWrap",
      "outputs": [],
      "stateMutability": "nonpayable",
      "type": "function"
    },
    {
      "inputs": [
        {
          "internalType": "bytes4",
          "name": "",
          "type": "bytes4"
        }
      ],
      "name": "supportsInterface",
      "outputs": [
        {
          "internalType": "bool",
          "name": "",
          "type": "bool"
        }
      ],
      "stateMutability": "view",
      "type": "function"
    },
    {
      "inputs": [],
      "name": "symbol",
      "outputs": [
        {
          "internalType": "string",
          "name": "",
          "type": "string"
        }
      ],
      "stateMutability": "view",
      "type": "function"
    },
    {
      "inputs": [
        {
          "internalType": "uint256",
          "name": "id",
          "type": "uint256"
        }
      ],
      "name": "tokenURI",
      "outputs": [
        {
          "internalType": "string",
          "name": "",
          "type": "string"
        }
      ],
      "stateMutability": "view",
      "type": "function"
    },
    {
      "inputs": [],
      "name": "totalSupply",
      "outputs": [
        {
          "internalType": "uint256",
          "name": "",
          "type": "uint256"
        }
      ],
      "stateMutability": "view",
      "type": "function"
    },
    {
      "inputs": [
        {
          "internalType": "address",
          "name": "from",
          "type": "address"
        },
        {
          "internalType": "address",
          "name": "to",
          "type": "address"
        },
        {
          "internalType": "uint256",
          "name": "id",
          "type": "uint256"
        }
      ],
      "name": "transferFrom",
      "outputs": [],
      "stateMutability": "nonpayable",
      "type": "function"
    },
    {
      "inputs": [
        {
          "internalType": "uint256",
          "name": "id",
          "type": "uint256"
        }
      ],
      "name": "withdraw",
      "outputs": [],
      "stateMutability": "nonpayable",
      "type": "function"
    }
  ],
  "bytecode": {
    "object": "0x60c0806040523461015a57600080546001600160a01b03191633178155735564886ca2c518d1964e5fcea4f423b41db9f5616080526e0c2e074ec69a0dfb2997ba6c7d2e1e60a05260056020527fc01909ce2b517f8cd3a46ae0cfde9179f9b675cf633d3d84c8226585cc73c156805460ff1990811660019081179092557f072ad3113145b5af48d301e3b9fc3bd1c97c3f26a14f5d44904b71469875631e8054821683179055635b5e139f60e01b9092527f3b767bd59d7164fff7ec5b80ca1165d9d6e12ee8656896fac4159b0760bfd9f78054909216179055612b68908161016082396080518181816102fe01528181610a3e01528181610aa601528181610e0001528181610e4d01528181610e9901528181610ed201528181610f2b0152818161111d0152818161145c0152818161179b01528181611a58015281816120380152612628015260a051818181611d940152611f170152f35b600080fdfe608080604052600436101561001357600080fd5b600090813560e01c908162b7aff7146122265750806301e51ae8146121ff57806301ffc9a7146121c257806306fdde0314612192578063081812fc1461215f578063095ea7b314611fc85780630dab76ed14611f6457806318160ddd14611f465780631d2e2cc414611f0157806323b872dd14611ee95780632a55205a14611c785780632e1a7d4d14611c3357806342842e0e14611b725780636352211e14611a2157806370a08231146119e8578063755edd17146119c7578063877f8537146116fc57806388a8c95c1461168f5780638d603116146113d8578063902f5e3a146113ae57806395d89b4114611369578063a22cb46514611294578063a3389c3f1461114c578063a4c10bb714611107578063ad5c3327146110dd578063ae29603d14610d18578063b3ead7751461094a578063b88d4fde1461082e578063c0a43a7c14610780578063c87b56dd146105d5578063cafd0d1414610288578063e0aa279714610249578063e4166e93146101ec5763e985e9c51461019657600080fd5b346101e95760403660031901126101e9576101af6123ab565b60406101b96123c1565b9260018060a01b0380931681526007602052209116600052602052602060ff604060002054166040519015158152f35b80fd5b50346101e95760403660031901126101e95761020661224b565b9060243563ffffffff60e01b80821680920361024457602093168252600b8352604082209082528252604060018060a01b0391205416604051908152f35b600080fd5b50346101e95760203660031901126101e95760209060ff906040906001600160a01b036102746123ab565b168152600384522054166040519015158152f35b50346101e95761029736612439565b93926102a38382612885565b6102ac84612893565b6101008181106105c157908291031c92838652602094600886526001600160401b03936102df8560408a205416156128bf565b6040516302571be360e01b8152600481018590526001600160a01b03947f00000000000000000000000000000000000000000000000000000000000000008616918981602481865afa9081156105b6578a9291610347918d91610599575b50881630146128fd565b602460405180948193631d9dabef60e11b835260048301525afa90811561058e579061037e918a91610561575b508516331461293d565b63ffffffff60e01b9889841693848a52600b895260408a209a8083169b8c8c528a528660408c20541690811561053557898c5260088b5260408c205460a01b1661050c578a80918b6103f06103fe6103d4612318565b604051928391858301958b875260248401526044830190612386565b03601f1981018352826122dc565b51915afa61040a612980565b90159081156104f2575b506104d05750505050600495966001916040519161043183612262565b85421683528783019182526040830190815260608301958a8752878b526008895260408b2093511663ffffffff60401b8454935160a01c169163ffffffff60601b905160801c16926001600160801b0319161717178155019151166001600160601b0360a01b8254161790553384600080516020612b1383398151915281604051a45b3383525260408120600181540190556001805401600155604051f35b906104ee9160405194859463855b6d3b60e01b8652600486016129c8565b0390fd5b61050591508a80825183010191016129b0565b1538610414565b5050505050505090508293506040600493209042166001600160401b03198254161790556104b4565b50506040516335ec1cc560e21b81526001600160e01b0319918216600482015291166024820152604490fd5b6105819150893d8b11610587575b61057981836122dc565b81019061250a565b38610374565b503d61056f565b6040513d8b823e3d90fd5b6105b09150843d86116105875761057981836122dc565b3861033d565b6040513d8d823e3d90fd5b634e487b7160e01b87526011600452602487fd5b50346101e957602080600319360112610733576004358083526008825260408320926040519161060483612262565b84549260016001600160401b0396878616835263ffffffff60e01b92838760a01b169060608982019383855286604084019a60801b168a52858060a01b039586910154169101521561074857916044918186959451168552600b88526040852082885116865288526040852054169551169160405195869384926339e883b560e11b8452600484015260248301525afa93841561073b5781946106bd575b5050506106b9604051928284938452830190612386565b0390f35b90919293503d8083853e6106d181856122dc565b8301928481850312610737578051918211610737570182601f82011215610733578051916106fe836122fd565b9361070c60405195866122dc565b8385528584840101116101e957509061072a91848085019101612351565b903880806106a2565b5080fd5b8280fd5b50604051903d90823e3d90fd5b8387604051918183015280825261075e826122a6565b6104ee604051928392633dff773d60e21b845260048401526024830190612386565b5060403660031901126101e95761079561224b565b61079d61248b565b6107b160018060a01b038454163314612adb565b6001600160e01b03199182169182146107e9576107e49183526005602052604083209060ff801983541691151516179055565b604051f35b60405162461bcd60e51b815260206004820152601a60248201527f494e56414c49445f494e544552464143455f53454c4543544f520000000000006044820152606490fd5b50346101e95760803660031901126101e9576108486123ab565b6108506123c1565b6044356064356001600160401b0381116109465761087290369060040161240c565b9261087e8382876125c3565b803b1593868515610893575b6107e486612825565b604051630a85bd0160e11b8082523360048301526001600160a01b039889166024830152604482019690965260806064820152969495506020948794859384916108e1916084840191612864565b0393165af1801561093b576107e492849161090d575b506001600160e01b03191614388080808661088a565b61092e915060203d8111610934575b61092681836122dc565b810190612805565b386108f7565b503d61091c565b6040513d85823e3d90fd5b8480fd5b50346101e9576109593661249a565b6001600160e01b03198083168652600b602090815260408088209284168852919052852054929391926001600160a01b0316918215610ceb5785905b8582106109bc57868633825260046020526040822081815401905560015401600155604051f35b816000198114610cd7576109d860016109df92019388846129fa565b3691612a51565b6109e881612563565b906109f38151612893565b908161010010610cc3578282610100031c8a526008602052610a226001600160401b0360408c205416156128bf565b6040516302571be360e01b8152600481018490526020816024817f00000000000000000000000000000000000000000000000000000000000000006001600160a01b03165afa80156105b657610a8a918c91610ca4575b506001600160a01b031630146128fd565b604051631d9dabef60e11b8152600481018490526020816024817f00000000000000000000000000000000000000000000000000000000000000006001600160a01b03165afa80156105b657610af2918c91610c85575b506001600160a01b0316331461293d565b61010082900383901c8a52600860205260408a205460a01b6001600160e01b031916610c5f578980604051602081019089825260206024820152610b3d816103f06044820188612386565b51908a5afa610b4a612980565b9015908115610c44575b50610c255750886001604051610b6981612262565b6001600160401b03421681526020810163ffffffff60e01b8b1681526040820163ffffffff60e01b8a1681526001600160401b03604060608501968088528989610100031c815260086020522093511663ffffffff60401b8454935160a01c169163ffffffff60601b905160801c16926001600160801b0319161717178155019060018060a01b039051166001600160601b0360a01b825416179055610100031c3388600080516020612b1383398151915281604051a4610995565b87906104ee8760405193849363855b6d3b60e01b855260048501612a88565b610c589150602080825183010191016129b0565b1538610b54565b505060408820805467ffffffffffffffff1916426001600160401b031617905550610995565b610c9e915060203d6020116105875761057981836122dc565b38610ae1565b610cbd915060203d6020116105875761057981836122dc565b38610a79565b634e487b7160e01b8a52601160045260248afd5b634e487b7160e01b88526011600452602488fd5b506040516335ec1cc560e21b81526001600160e01b03198481166004830152919091166024820152604490fd5b50346101e957610d273661249a565b6001600160e01b03198083168652600b602090815260408088208385168952909152862054939493919290916001600160a01b031680156110b35786945b868610610d8c57878733825260046020526040822081815401905560015401600155604051f35b610d9a6109d88789846129fa565b8880604051602081019089825260206024820152610dbf816103f06044820188612386565b5190865afa610dcc612980565b9015908115611098575b5061107957610de481612563565b6040516302571be360e01b8152600481018290526020816024817f00000000000000000000000000000000000000000000000000000000000000006001600160a01b03165afa80156105b657610e4b918c9161105a575b506001600160a01b031615612aa0565b7f00000000000000000000000000000000000000000000000000000000000000006001600160a01b03163b15611037576040516310cb3b4160e21b8152600481018290528a908181602481837f00000000000000000000000000000000000000000000000000000000000000006001600160a01b03165af1801561103b57611046575b50507f00000000000000000000000000000000000000000000000000000000000000006001600160a01b03163b156110375760405163017d335360e71b815260048101829052336024820152604481018b90528a908181606481837f00000000000000000000000000000000000000000000000000000000000000006001600160a01b03165af1801561103b57611023575b50506001915160031b610100031c960195886001604051610f8081612262565b6001600160401b034216815260208101888816815260408201898b1681526001600160401b036040606085019680885288815260086020522093511663ffffffff60401b8454935160a01c169163ffffffff60601b905160801c16926001600160801b0319161717178155019060018060a01b039051166001600160601b0360a01b8254161790553389600080516020612b1383398151915281604051a4610d65565b61102c90612293565b611037578938610f60565b8980fd5b6040513d84823e3d90fd5b61104f90612293565b611037578938610ece565b611073915060203d6020116105875761057981836122dc565b38610e3b565b83906104ee8760405193849363855b6d3b60e01b855260048501612a88565b6110ac9150602080825183010191016129b0565b1538610dd6565b6040516335ec1cc560e21b81526001600160e01b0319838116600483015285166024820152604490fd5b50346101e95760203660031901126101e95760406020916004358152600983522054604051908152f35b50346101e957806003193601126101e9576040517f00000000000000000000000000000000000000000000000000000000000000006001600160a01b03168152602090f35b50346101e95761115b36612439565b6001600160e01b03198083168652600b6020908152604080882092841688529181529086205490959492939291906001600160a01b0316801561125b57858091886103f06111c66111aa612318565b604051928391858301958a875260248401526044830190612386565b51915afa936111d3612980565b94158015611244575b6104d057505050508281805181010312610733578201519060ff82168092036101e95750801561120e57604051908152f35b60405162461bcd60e51b815260048101839052600e60248201526d1253959053125117d193d493505560921b6044820152606490fd5b506112568786518701018887016129b0565b6111dc565b60405162461bcd60e51b8152600481018890526011602482015270494e56414c49445f4c414e475f5459504560781b6044820152606490fd5b50346101e95760403660031901126101e9576112ae6123ab565b6112b661248b565b3383526004602052604083205415611332573383526007602052604083209160018060a01b031691826000526020526112ff8160406000209060ff801983541691151516179055565b60405190151581527f17307eab39ab6107e8899845ad3d59bd9653f200f220920489ca2b5937696c3160203392a3604051f35b60405162461bcd60e51b815260206004820152600f60248201526e1393d512125391d7d5d49054141151608a1b6044820152606490fd5b50346101e957806003193601126101e9576106b9604051611389816122a6565b60048152632ba6272960e11b6020820152604051918291602083526020830190612386565b50346101e95760203660031901126101e95760406020916004358152600283522054604051908152f35b50346101e9576113e736612439565b9163ffffffff60e01b80831694858752602094600b86526040882092811692838952865260018060a01b03948560408a205416801561166457898091896103f06114326103d4612318565b51915afa61143e612980565b901590811561164a575b5061162c5750508261145991612885565b837f0000000000000000000000000000000000000000000000000000000000000000166040516302571be360e01b81528260048201528681602481855afa90811561058e576114b39187918b9161160f575b501615612aa0565b803b1561160b576040516310cb3b4160e21b815260048101839052888160248183865af1801561058e576115f8575b508088913b156107335781809160646040518094819363017d335360e71b83528860048401523360248401528160448401525af1801561103b576115e0575b5050600192338852600486526040882084815401905583805401845560031b610100031c946040519161155383612262565b6001600160401b03804216845286840192835260408401918252600860608501978a8952898b52526040892093511663ffffffff60401b8454935160a01c169163ffffffff60601b905160801c16926001600160801b0319161717178155019151166001600160601b0360a01b825416179055604051903383600080516020612b138339815191528185a4f35b6115e990612293565b6115f4578638611521565b8680fd5b61160490989198612293565b96386114e2565b8780fd5b6116269150893d8b116105875761057981836122dc565b386114ab565b60405163855b6d3b60e01b8152948594506104ee93600486016129c8565b61165d91508880825183010191016129b0565b1538611448565b506040516335ec1cc560e21b81526001600160e01b0319918216600482015291166024820152604490fd5b50346101e95760203660031901126101e9576116a96123ab565b81546001600160a01b03808216926116c2338514612adb565b169081604051937f8be0079c531659141344cd1fd0a4f28419497f9722a3daafe3b4186f6b6457e08686a36001600160a01b031916178255f35b50346101e95761172361171d61171136612439565b94918093949194612885565b91612893565b6101008181106119b357908291031c918285526020916008835263ffffffff60e01b9081604088205460a01b1661197857828216808852600b85526040808920938816808a5293865288205490966001600160a01b0394909185161561194e5750506040516302571be360e01b8152600481018290527f000000000000000000000000000000000000000000000000000000000000000084168582602481845afa91821561058e57859387918b9461192f575b508484168b526003825260ff60408c2054166118d0575b5050501694851561189357906001916040519161180983612262565b8883528583019182526040830190815260086060840196338852888b52526001600160401b0360408a2093511663ffffffff60401b8454935160a01c169163ffffffff60601b905160801c16926001600160801b0319161717178155019151166001600160601b0360a01b8254161790556040519183600080516020612b138339815191528185a4f35b60405162461bcd60e51b81526004810185905260156024820152741393d517d49151d10bd051111497d393d517d4d155605a1b6044820152606490fd5b9193509150602460405180948193631d9dabef60e11b835260048301525afa80156119245783918891611907575b503885816117ed565b61191e9150853d87116105875761057981836122dc565b386118fe565b6040513d89823e3d90fd5b611947919450823d84116105875761057981836122dc565b92386117d6565b6040516335ec1cc560e21b81526001600160e01b0319918216600482015291166024820152604490fd5b60405162461bcd60e51b81526004810185905260136024820152721053149150511657d4d3d19515d49054141151606a1b6044820152606490fd5b634e487b7160e01b86526011600452602486fd5b5060203660031901126101e9576020906119df6123ab565b50604051908152f35b50346101e95760203660031901126101e9576020906040906001600160a01b03611a106123ab565b168152600483522054604051908152f35b50346101e957602090816003193601126101e9576040516302571be360e01b8152600480359082018190526001600160a01b0392907f00000000000000000000000000000000000000000000000000000000000000008416908584602481855afa93841561093b579086918495611b53575b5085851684526003825260ff604085205416611af4575b50505050168015611abd57604051908152f35b60405162461bcd60e51b815260048101839052600f60248201526e1393d517d49151d10bd09554939151608a1b6044820152606490fd5b9091929350602460405180948193631d9dabef60e11b835260048301525afa918215611b475791611b2a575b5038808481611aaa565b611b419150833d85116105875761057981836122dc565b38611b20565b604051903d90823e3d90fd5b611b6b919550823d84116105875761057981836122dc565b9338611a93565b50346101e95780611b82366123d7565b9091611b8f8284836125c3565b823b15928315611ba4575b846107e485612825565b604051630a85bd0160e11b8082523360048301526001600160a01b0393841660248301526044820194909452608060648201526084810186905294929350602092859260a492849291165af1801561093b576107e4928491611c15575b5063ffffffff60e01b161482913880611b9a565b611c2d915060203d81116109345761092681836122dc565b38611c01565b50346101e95760203660031901126101e95760405160043581527f7fcf532c15f0a6db0bd6d0e038bea71d30d808c7d98cb3bf7268a95bf5081b6560203392a2604051f35b50346101e95760403660031901126101e957604051600435919060243582611c9f836122a6565b60038352620cae8d60eb1b602080940152604051838101908282527f4f5b812789fc606be1b3b16908db13fc7a9adf7ca72641f84d75b47069d3d7f0604082015260408152611ced816122c1565b51902060405184810190878252858152611d06816122a6565b51902060405190858201928352604082015260408152611d25816122c1565b51902094604051848101908782528260408201528460608201524260808201526080815260a081018181106001600160401b03821117611ed5576040525190206003900680611ea5575050604051630178b8bf60e01b8152600481018690526001600160a01b039084816024817f000000000000000000000000000000000000000000000000000000000000000086165afa90811561093b579082918491611e88575b50169586611e07575b5050604094505b6001600160a01b039084821615611dfb575b508451931683526064900490820152f35b54811693506064611dea565b8491929550602460405180988193631d9dabef60e11b835260048301525afa8015611e7d578490611e40575b6040955016923880611dd1565b50938281813d8311611e76575b611e5781836122dc565b81010312611e725751938085168503611e7257604094611e33565b8380fd5b503d611e4d565b6040513d86823e3d90fd5b611e9f9150863d88116105875761057981836122dc565b38611dc8565b60409650600114611eb7575b50611dd8565b815260088352848120600101546001600160a01b0316935038611eb1565b634e487b7160e01b85526041600452602485fd5b50346101e9576107e4611efb366123d7565b916125c3565b50346101e957806003193601126101e9576040517f00000000000000000000000000000000000000000000000000000000000000006001600160a01b03168152602090f35b50346101e957806003193601126101e9576020600154604051908152f35b50346101e95760203660031901126101e957604060809160043581526008602052208054906001808060a01b0391015416604051916001600160401b038116835263ffffffff60e01b90818160a01b166020850152841b1660408301526060820152f35b50346101e95760403660031901126101e957611fe26123ab565b602435808352602060028152611ffc604085205415612529565b6120186040518383820152828152612013816122a6565b612563565b604051631d9dabef60e11b8152600481018290526001600160a01b0392907f00000000000000000000000000000000000000000000000000000000000000008416908281602481855afa80156121545785918991612137575b501633149283156120d2575b505061208a600692612586565b8386525260408420921691826001600160601b0360a01b82541617905560405191337f8c5be1e5ebec7d5bd14f71427d1e84f3dd0314c0f7b2291e5b200ac8c7c3b9258585a4f35b829193506024604051809581936302571be360e01b835260048301525afa801561212c578361208a91600694899161210f575b501633149261207d565b6121269150843d86116105875761057981836122dc565b38612105565b6040513d88823e3d90fd5b61214e9150843d86116105875761057981836122dc565b38612071565b6040513d8a823e3d90fd5b50346101e95760203660031901126101e957602090600435815260068252604060018060a01b0391205416604051908152f35b50346101e957806003193601126101e9576106b96121ae612318565b604051918291602083526020830190612386565b50346101e95760203660031901126101e95760ff604060209263ffffffff60e01b6121eb61224b565b168152600584522054166040519015158152f35b50346101e957806003193601126101e957546040516001600160a01b039091168152602090f35b905034610733578160031936011261073357600a546001600160a01b03168152602090f35b600435906001600160e01b03198216820361024457565b608081019081106001600160401b0382111761227d57604052565b634e487b7160e01b600052604160045260246000fd5b6001600160401b03811161227d57604052565b604081019081106001600160401b0382111761227d57604052565b606081019081106001600160401b0382111761227d57604052565b90601f801991011681019081106001600160401b0382111761227d57604052565b6001600160401b03811161227d57601f01601f191660200190565b60405190612325826122a6565b601e82527f57726170706564204c696e61676565204e616d652052656769737472617200006020830152565b918091926000905b82821061237157501161236a575050565b6000910152565b91508060209183015181860152018291612359565b9060209161239f81518092818552858086019101612351565b601f01601f1916010190565b600435906001600160a01b038216820361024457565b602435906001600160a01b038216820361024457565b6060906003190112610244576001600160a01b0390600435828116810361024457916024359081168103610244579060443590565b9181601f84011215610244578235916001600160401b038311610244576020838186019501011161024457565b606060031982011261024457600435906001600160401b038211610244576124639160040161240c565b90916001600160e01b0319906024358281168103610244579160443590811681036102445790565b60243590811515820361024457565b906060600319830112610244576004356001600160401b039283821161024457806023830112156102445781600401359384116102445760248460051b8301011161024457602490810192916001600160e01b031991358281168103610244579160443590811681036102445790565b9081602091031261024457516001600160a01b03811681036102445790565b1561253057565b60405162461bcd60e51b815260206004820152600b60248201526a1393d517d5d4905414115160aa1b6044820152606490fd5b602081519101519060208110612577575090565b6000199060200360031b1b1690565b1561258d57565b60405162461bcd60e51b815260206004820152600e60248201526d1393d517d055551213d49256915160921b6044820152606490fd5b60008381526020906002825260406125de8183205415612529565b8051938684860152838552818501956001600160401b039086881082891117611ed55787845261260d87612563565b631d9dabef60e11b8952604488018190526001600160a01b037f000000000000000000000000000000000000000000000000000000000000000081169990949088818c815a91602492fa998a156127fb57889a6127c5575b505084169784168803612790578733148015612774575b801561275f575b61268c90612586565b883b1561275b579060648692838751968794859363017d335360e71b85526004850152169b8c60248401528160448401525af1801561274e57612718575b50506006600080516020612b138339815191529385845260048152828420600019815401905586845282842060018154019055878452528082206001600160601b0360a01b815416905551a4565b819392931161273a578252906006600080516020612b138339815191526126ca565b634e487b7160e01b82526041600452602482fd5b50505051903d90823e3d90fd5b8580fd5b50898652600687528486205484163314612683565b5087865260078752848620338752875260ff858720541661267c565b845162461bcd60e51b815260048101889052600e60248201526d2727aa2fa32927a6afa7aba722a960911b6044820152606490fd5b86929a508291886127ec928c908d3d106127f3575b6127e482856122dc565b01019061250a565b9991612665565b3d91506127da565b87513d8a823e3d90fd5b9081602091031261024457516001600160e01b0319811681036102445790565b1561282c57565b60405162461bcd60e51b815260206004820152601060248201526f155394d0519157d49150d2541251539560821b6044820152606490fd5b908060209392818452848401376000828201840152601f01601f1916010190565b359060208110612577575090565b8060001904600811811515166128a95760031b90565b634e487b7160e01b600052601160045260246000fd5b156128c657565b60405162461bcd60e51b815260206004820152600f60248201526e1053149150511657d5d49054141151608a1b6044820152606490fd5b1561290457565b60405162461bcd60e51b815260206004820152601160248201527013d5d3915497d393d517d0d2105391d151607a1b6044820152606490fd5b1561294457565b60405162461bcd60e51b815260206004820152601460248201527311115413d4d25517d051111497d393d517d4d15560621b6044820152606490fd5b3d156129ab573d90612991826122fd565b9161299f60405193846122dc565b82523d6000602084013e565b606090565b90816020910312610244575180151581036102445790565b92906129e290604093969596606086526060860191612864565b6001600160e01b031991821660208501529416910152565b9190811015612a3b5760051b81013590601e19813603018212156102445701908135916001600160401b038311610244576020018236038113610244579190565b634e487b7160e01b600052603260045260246000fd5b929192612a5d826122fd565b91612a6b60405193846122dc565b829481845281830111610244578281602093846000960137010152565b916129e2604092959495606085526060850190612386565b15612aa757565b60405162461bcd60e51b815260206004820152600c60248201526b1053149150511657d49151d160a21b6044820152606490fd5b15612ae257565b60405162461bcd60e51b815260206004820152600860248201526727a7262cafa222ab60c11b6044820152606490fdfeddf252ad1be2c89b69c2b068fc378daa952ba7f163c4a11628f55a4df523b3efa26469706673582212206130623f18afafd86fb55be200ea9f6c81aa2edcdf1c5885d0675ffa48511dc764736f6c634300080f0033",
    "linkReferences": {}
  },
  "methodIdentifiers": {
    "DefaultResolver()": "00b7aff7",
    "Dev()": "01e51ae8",
    "ENS()": "1d2e2cc4",
    "LNR()": "a4c10bb7",
    "NAME(uint256)": "0dab76ed",
    "NH2ID(bytes32)": "ad5c3327",
    "approve(address,uint256)": "095ea7b3",
    "balanceOf(address)": "70a08231",
    "batchDeposit(string[],bytes4,bytes4)": "b3ead775",
    "batchReserve(string[],bytes4,bytes4)": "ae29603d",
    "blocks(bytes4,bytes4)": "e4166e93",
    "changeDev(address)": "88a8c95c",
    "checkName(string,bytes4,bytes4)": "a3389c3f",
    "deposit(string,bytes4,bytes4)": "cafd0d14",
    "getApproved(uint256)": "081812fc",
    "isApprovedForAll(address,address)": "e985e9c5",
    "isWrapped(uint256)": "902f5e3a",
    "isWrapper(address)": "e0aa2797",
    "mintTo(address)": "755edd17",
    "name()": "06fdde03",
    "ownerOf(uint256)": "6352211e",
    "reserve(string,bytes4,bytes4)": "8d603116",
    "royaltyInfo(uint256,uint256)": "2a55205a",
    "safeTransferFrom(address,address,uint256)": "42842e0e",
    "safeTransferFrom(address,address,uint256,bytes)": "b88d4fde",
    "setApprovalForAll(address,bool)": "a22cb465",
    "setInterface(bytes4,bool)": "c0a43a7c",
    "softWrap(string,bytes4,bytes4)": "877f8537",
    "supportsInterface(bytes4)": "01ffc9a7",
    "symbol()": "95d89b41",
    "tokenURI(uint256)": "c87b56dd",
    "totalSupply()": "18160ddd",
    "transferFrom(address,address,uint256)": "23b872dd",
    "withdraw(uint256)": "2e1a7d4d"
  },
  "id": 2
}