{
  "abi": [
    {
      "inputs": [
        {
          "internalType": "address",
          "name": "_wlnr",
          "type": "address"
        }
      ],
      "stateMutability": "nonpayable",
      "type": "constructor"
    },
    {
      "inputs": [
        {
          "internalType": "uint256",
          "name": "id",
          "type": "uint256"
        }
      ],
      "name": "InvalidTokenID",
      "type": "error"
    },
    {
      "inputs": [
        {
          "internalType": "address",
          "name": "owner",
          "type": "address"
        },
        {
          "internalType": "address",
          "name": "from",
          "type": "address"
        },
        {
          "internalType": "uint256",
          "name": "id",
          "type": "uint256"
        }
      ],
      "name": "NotSubdomainOwner",
      "type": "error"
    },
    {
      "inputs": [
        {
          "internalType": "address",
          "name": "_dev",
          "type": "address"
        },
        {
          "internalType": "address",
          "name": "_you",
          "type": "address"
        }
      ],
      "name": "OnlyDev",
      "type": "error"
    },
    {
      "inputs": [
        {
          "internalType": "address",
          "name": "operator",
          "type": "address"
        },
        {
          "internalType": "address",
          "name": "owner",
          "type": "address"
        },
        {
          "internalType": "uint256",
          "name": "id",
          "type": "uint256"
        }
      ],
      "name": "Unauthorized",
      "type": "error"
    },
    {
      "anonymous": false,
      "inputs": [
        {
          "indexed": true,
          "internalType": "bytes32",
          "name": "node",
          "type": "bytes32"
        },
        {
          "indexed": false,
          "internalType": "address",
          "name": "addr",
          "type": "address"
        }
      ],
      "name": "AddressChanged",
      "type": "event"
    },
    {
      "anonymous": false,
      "inputs": [
        {
          "indexed": true,
          "internalType": "bytes32",
          "name": "node",
          "type": "bytes32"
        },
        {
          "indexed": false,
          "internalType": "uint256",
          "name": "coinType",
          "type": "uint256"
        },
        {
          "indexed": false,
          "internalType": "bytes",
          "name": "newAddress",
          "type": "bytes"
        }
      ],
      "name": "AddressChangedForCoin",
      "type": "event"
    },
    {
      "anonymous": false,
      "inputs": [
        {
          "indexed": true,
          "internalType": "bytes32",
          "name": "node",
          "type": "bytes32"
        },
        {
          "indexed": false,
          "internalType": "bytes",
          "name": "_contenthash",
          "type": "bytes"
        }
      ],
      "name": "ContenthashChanged",
      "type": "event"
    },
    {
      "anonymous": false,
      "inputs": [
        {
          "indexed": true,
          "internalType": "bytes32",
          "name": "node",
          "type": "bytes32"
        },
        {
          "indexed": false,
          "internalType": "string",
          "name": "name",
          "type": "string"
        }
      ],
      "name": "NameChanged",
      "type": "event"
    },
    {
      "anonymous": false,
      "inputs": [
        {
          "indexed": true,
          "internalType": "bytes32",
          "name": "node",
          "type": "bytes32"
        },
        {
          "indexed": false,
          "internalType": "bytes32",
          "name": "x",
          "type": "bytes32"
        },
        {
          "indexed": false,
          "internalType": "bytes32",
          "name": "y",
          "type": "bytes32"
        }
      ],
      "name": "PubkeyChanged",
      "type": "event"
    },
    {
      "anonymous": false,
      "inputs": [
        {
          "indexed": true,
          "internalType": "bytes32",
          "name": "node",
          "type": "bytes32"
        },
        {
          "indexed": true,
          "internalType": "string",
          "name": "key",
          "type": "string"
        },
        {
          "indexed": false,
          "internalType": "string",
          "name": "value",
          "type": "string"
        }
      ],
      "name": "TextRecordChanged",
      "type": "event"
    },
    {
      "stateMutability": "payable",
      "type": "fallback"
    },
    {
      "inputs": [],
      "name": "DefaultContenthash",
      "outputs": [
        {
          "internalType": "bytes",
          "name": "",
          "type": "bytes"
        }
      ],
      "stateMutability": "view",
      "type": "function"
    },
    {
      "inputs": [],
      "name": "LNR",
      "outputs": [
        {
          "internalType": "contract iLNR",
          "name": "",
          "type": "address"
        }
      ],
      "stateMutability": "view",
      "type": "function"
    },
    {
      "inputs": [],
      "name": "WLNR",
      "outputs": [
        {
          "internalType": "contract iWLNR",
          "name": "",
          "type": "address"
        }
      ],
      "stateMutability": "view",
      "type": "function"
    },
    {
      "inputs": [
        {
          "internalType": "bytes32",
          "name": "node",
          "type": "bytes32"
        }
      ],
      "name": "addr",
      "outputs": [
        {
          "internalType": "address payable",
          "name": "",
          "type": "address"
        }
      ],
      "stateMutability": "view",
      "type": "function"
    },
    {
      "inputs": [
        {
          "internalType": "bytes32",
          "name": "node",
          "type": "bytes32"
        },
        {
          "internalType": "uint256",
          "name": "coinType",
          "type": "uint256"
        }
      ],
      "name": "addr",
      "outputs": [
        {
          "internalType": "bytes",
          "name": "_addr",
          "type": "bytes"
        }
      ],
      "stateMutability": "view",
      "type": "function"
    },
    {
      "inputs": [
        {
          "internalType": "bytes32",
          "name": "node",
          "type": "bytes32"
        }
      ],
      "name": "contenthash",
      "outputs": [
        {
          "internalType": "bytes",
          "name": "_hash",
          "type": "bytes"
        }
      ],
      "stateMutability": "view",
      "type": "function"
    },
    {
      "inputs": [
        {
          "internalType": "bytes32",
          "name": "node",
          "type": "bytes32"
        }
      ],
      "name": "name",
      "outputs": [
        {
          "internalType": "string",
          "name": "_name",
          "type": "string"
        }
      ],
      "stateMutability": "view",
      "type": "function"
    },
    {
      "inputs": [
        {
          "internalType": "bytes32",
          "name": "",
          "type": "bytes32"
        }
      ],
      "name": "pubkey",
      "outputs": [
        {
          "internalType": "bytes32",
          "name": "x",
          "type": "bytes32"
        },
        {
          "internalType": "bytes32",
          "name": "y",
          "type": "bytes32"
        }
      ],
      "stateMutability": "view",
      "type": "function"
    },
    {
      "inputs": [
        {
          "internalType": "bytes32",
          "name": "node",
          "type": "bytes32"
        },
        {
          "internalType": "uint256",
          "name": "coinType",
          "type": "uint256"
        },
        {
          "internalType": "bytes",
          "name": "_addr",
          "type": "bytes"
        }
      ],
      "name": "setAddress",
      "outputs": [],
      "stateMutability": "nonpayable",
      "type": "function"
    },
    {
      "inputs": [
        {
          "internalType": "bytes32",
          "name": "node",
          "type": "bytes32"
        },
        {
          "internalType": "address",
          "name": "_addr",
          "type": "address"
        }
      ],
      "name": "setAddress",
      "outputs": [],
      "stateMutability": "nonpayable",
      "type": "function"
    },
    {
      "inputs": [
        {
          "internalType": "bytes32",
          "name": "node",
          "type": "bytes32"
        },
        {
          "internalType": "bytes",
          "name": "_hash",
          "type": "bytes"
        }
      ],
      "name": "setContenthash",
      "outputs": [],
      "stateMutability": "nonpayable",
      "type": "function"
    },
    {
      "inputs": [
        {
          "internalType": "bytes",
          "name": "_content",
          "type": "bytes"
        }
      ],
      "name": "setDefaultContenthash",
      "outputs": [],
      "stateMutability": "nonpayable",
      "type": "function"
    },
    {
      "inputs": [
        {
          "internalType": "string",
          "name": "key",
          "type": "string"
        },
        {
          "internalType": "string",
          "name": "value",
          "type": "string"
        }
      ],
      "name": "setDefaultText",
      "outputs": [],
      "stateMutability": "nonpayable",
      "type": "function"
    },
    {
      "inputs": [
        {
          "internalType": "bytes4",
          "name": "sig",
          "type": "bytes4"
        },
        {
          "internalType": "bool",
          "name": "value",
          "type": "bool"
        }
      ],
      "name": "setInterface",
      "outputs": [],
      "stateMutability": "payable",
      "type": "function"
    },
    {
      "inputs": [
        {
          "internalType": "bytes32",
          "name": "node",
          "type": "bytes32"
        },
        {
          "internalType": "string",
          "name": "_name",
          "type": "string"
        }
      ],
      "name": "setName",
      "outputs": [],
      "stateMutability": "nonpayable",
      "type": "function"
    },
    {
      "inputs": [
        {
          "internalType": "bytes32",
          "name": "node",
          "type": "bytes32"
        },
        {
          "internalType": "bytes32",
          "name": "x",
          "type": "bytes32"
        },
        {
          "internalType": "bytes32",
          "name": "y",
          "type": "bytes32"
        }
      ],
      "name": "setPubkey",
      "outputs": [],
      "stateMutability": "nonpayable",
      "type": "function"
    },
    {
      "inputs": [
        {
          "internalType": "bytes32",
          "name": "node",
          "type": "bytes32"
        },
        {
          "internalType": "string",
          "name": "key",
          "type": "string"
        },
        {
          "internalType": "string",
          "name": "value",
          "type": "string"
        }
      ],
      "name": "setText",
      "outputs": [],
      "stateMutability": "nonpayable",
      "type": "function"
    },
    {
      "inputs": [
        {
          "internalType": "bytes4",
          "name": "",
          "type": "bytes4"
        }
      ],
      "name": "supportsInterface",
      "outputs": [
        {
          "internalType": "bool",
          "name": "",
          "type": "bool"
        }
      ],
      "stateMutability": "view",
      "type": "function"
    },
    {
      "inputs": [
        {
          "internalType": "bytes32",
          "name": "node",
          "type": "bytes32"
        },
        {
          "internalType": "string",
          "name": "key",
          "type": "string"
        }
      ],
      "name": "text",
      "outputs": [
        {
          "internalType": "string",
          "name": "value",
          "type": "string"
        }
      ],
      "stateMutability": "view",
      "type": "function"
    },
    {
      "inputs": [],
      "name": "withdrawEther",
      "outputs": [],
      "stateMutability": "payable",
      "type": "function"
    },
    {
      "inputs": [
        {
          "internalType": "address",
          "name": "token",
          "type": "address"
        },
        {
          "internalType": "uint256",
          "name": "value",
          "type": "uint256"
        }
      ],
      "name": "withdrawToken",
      "outputs": [],
      "stateMutability": "payable",
      "type": "function"
    },
    {
      "stateMutability": "payable",
      "type": "receive"
    }
  ],
  "bytecode": {
    "object": "0x608034620001dd57601f620021e238819003918201601f1916830192916001600160401b03841183851017620001e25780839260409586528339602092839181010312620001dd57516001600160a01b0381169190829003620001dd57600180546001600160a01b03199081169093178155600080549093166e0c2e074ec69a0dfb2997ba6c7d2e1e178355631d9dabef60e11b835260028252838320805460ff19908116831790915563bc1c58d160e01b8452848420805482168317905563c869023360e01b84528484208054821683179055631674750f60e21b8452848420805482168317905563691f343160e01b845284842080548216831790556378e5bf0360e11b845284842080549091168217905582805260038252838320805491939180851c9085168015620001d2575b84821014620001be57601f81116200018d575b50605581558152207fe5010172002408011220a7448dcfc00e746c22e238de5c1e3b6fb97bae0949e48155697741b4e0ae8e929abd4f60b01b91015551611fe99081620001f98239f35b818352846002601f868620930160051c830192015b828110620001b257505062000143565b848155018590620001a2565b634e487b7160e01b83526022600452602483fd5b90607f169062000130565b600080fd5b634e487b7160e01b600052604160045260246000fdfe6080604081815260049081361015610025575b505050361561002057600080fd5b600080fd5b600092833560e01c90816301ffc9a71461156057508063079e99fc1461153757806310f13a8c1461136a57806329cd62ea14611279578063304e6ade146110d45780633b3b57de146110a357806359d1d43c146110865780635d81d55314610edd578063691f343114610ea657806369be8bb014610e5b5780637362377b14610d7c5780637737221314610bca57806393507f3d146109ea5780639e281a98146108c7578063a4c10bb71461089f578063bc1c58d114610819578063c0a43a7c146106d0578063c86902331461069e578063c9b6905914610433578063ca446dd9146102405763f1cb7e0603610012573461023c578060031936011261023c576101529282359260243593808352602094828652848420818552865261015985852086519889809261177a565b0388611611565b8651159081610231575b50610183575b50505061017f90519282849384528301906116fc565b0390f35b825484516302571be360e01b815292830191909152919450919291908290829060249082906001600160a01b03165afa9081156102245761017f929394916101f7575b508351906bffffffffffffffffffffffff199060601b1683820152601481526101ee816115e0565b92903880610169565b6102179150833d851161021d575b61020f8183611611565b810190611721565b386101c6565b503d610205565b50505051903d90823e3d90fd5b603c91501438610163565b8280fd5b5082903461042f578060031936011261042f57602435928035906001600160a01b03908186169081870361002057828654169285518094631d9dabef60e11b8252868483015281602460209788935afa90811561042557906102ad92918991610408575b50163314611864565b8451966bffffffffffffffffffffffff199060601b1683880152601487526102d4876115e0565b838652808352848620603c87528352848620908751906001600160401b0382116103f5575061030d816103078454611740565b84611810565b83601f821160011461037057819088997fce9745511e6b32283e684acf17f26ee2c5d221bf65c95e61c3d6fcfa446462d097989992610365575b50508160011b916000199060031b1c19161790555b8451908152a251f35b015190508980610347565b82885284882098601f198316895b8181106103de5750917fce9745511e6b32283e684acf17f26ee2c5d221bf65c95e61c3d6fcfa446462d09798999a918460019594106103c5575b505050811b01905561035c565b015160001960f88460031b161c191690558980806103b8565b838301518c556001909b019a92870192870161037e565b634e487b7160e01b885260419052602487fd5b61041f9150863d881161021d5761020f8183611611565b8a6102a4565b87513d8a823e3d90fd5b5080fd5b5082903461042f578060031936011261042f576001600160401b03833581811161069a5761046490369086016115b3565b6024929192358281116106965761047e90369088016115b3565b600180548751623ca35d60e31b8082529497602097949695909493926001600160a01b039081169289818f81875afa90811561068c578d9161066f575b501633036105ee57505088805260068652878920868951809287878337878201908152030190209185116105db5790849392916104fd8a966103078454611740565b8596601f861160011461056857508480918798600080516020611f94833981519152989361055d575b501b906000198660031b1c19161790555b818751928392833781016000815203902093610557865192839283611985565b0390a351f35b8a013592508c610526565b601f198616978388528188209188905b8b8b83106105c25750505086600080516020611f948339815191529899106105a8575b505084811b019055610537565b890135600019600388901b60f8161c191690558a8061059b565b83013584558d9950928401929182019190810190610578565b634e487b7160e01b895260418a52602489fd5b898c9289808e948685518095819382525afa938415610664579361063f575b5050516347522c7b60e11b81526001600160a01b039091169181019182523360208301529081906040010390fd5b0390fd5b61063b929350908161065c92903d1061021d5761020f8183611611565b91908461060d565b8351903d90823e3d90fd5b61068691508a3d8c1161021d5761020f8183611611565b8e6104bb565b8c513d8f823e3d90fd5b8580fd5b8380fd5b50903461023c57602036600319011261023c579181923581526005602052206001815491015482519182526020820152f35b50908160031936011261023c576106e561159c565b9060243591821515809303610815576001548451623ca35d60e31b808252602094926001600160a01b039081169286818681875afa90811561080b578a916107ee575b501633036107a35750506001600160e01b03199182169182146107605750906002918552528183209060ff8019835416911617905551f35b845162461bcd60e51b8152908101839052601a60248201527f494e56414c49445f494e544552464143455f53454c4543544f520000000000006044820152606490fd5b8791858089938685518095819382525afa938415610664579361063f575050516347522c7b60e11b81526001600160a01b039091169181019182523360208301529081906040010390fd5b6108059150873d891161021d5761020f8183611611565b38610728565b89513d8c823e3d90fd5b8480fd5b50903461023c57602036600319011261023c5790826108509261017f9450358152600360205261085782822083519485809261177a565b0384611611565b825115610872575b50519182916020835260208301906116fc565b816108919293508180610898935260036020522083519283809261177a565b0382611611565b903861085f565b83823461042f578160031936011261042f57905490516001600160a01b039091168152602090f35b5091908260031936011261042f5780356001600160a01b03818116929183900361069a573083146109b9578160208260015416875192838092623ca35d60e31b82525afa9081156109af578591610991575b50833b1561081557906064859283885196879485936323b872dd60e01b8552308986015216602484015260243560448401525af180156109875761095c57828451f35b6001600160401b038211610974575082523880828451f35b634e487b7160e01b835260419052602482fd5b84513d85823e3d90fd5b6109a9915060203d811161021d5761020f8183611611565b38610919565b86513d87823e3d90fd5b845162461bcd60e51b8152602081840152600b60248201526a15d4905417d313d0d2d15160aa1b6044820152606490fd5b50903461023c57606036600319011261023c57803590602435604435916001600160401b0392838111610bc657610a24903690830161164d565b86548651631d9dabef60e11b8152808401879052602095929392916001600160a01b039087908390602490829085165afa801561080b57610a6e928b91610ba95750163314611864565b8588528185528688208489528552868820918351918211610b965750610a98816103078454611740565b84601f8211600114610b0f5791817f8ea940b63ed2d74b35182a4212f17b597449038537c7685f96e28e8fb20a575d96959492610afe948b91610b04575b508160011b916000199060031b1c19161790555b8680519485948552840152868301906116fc565b0390a251f35b905083015138610ad6565b82895285892090601f1983168a5b818110610b7f575092610afe9492600192827f8ea940b63ed2d74b35182a4212f17b597449038537c7685f96e28e8fb20a575d9a99989610610b66575b5050811b019055610aea565b85015160001960f88460031b161c191690553880610b5a565b91928860018192868a015181550194019201610b1d565b634e487b7160e01b895260419052602488fd5b610bc09150883d8a1161021d5761020f8183611611565b386102a4565b8680fd5b5082903461042f57610bdb36611694565b9060018060a01b0395868654169685518098631d9dabef60e11b8252868483015281602460209b8c935afa9081156104255790610c2292918991610d655750163314611864565b838652600687526024858720865190636e616d6560e01b82528382015220906001600160401b038411610d525750610c6483610c5e8354611740565b83611810565b8596601f8411600114610ccc57508286977fb7d29e911041e8d9b843369e890bcb72c9388692ba48b65ac54e7214c4c348f795969791610cc1575b508360011b906000198560031b1c19161790555b610afe855192839283611985565b905082013588610c9f565b601f198416978288528188209188905b8a8210610d3a575050847fb7d29e911041e8d9b843369e890bcb72c9388692ba48b65ac54e7214c4c348f79697989910610d20575b5050600183811b019055610cb3565b830135600019600386901b60f8161c191690558780610d11565b80600184958294958901358155019401920190610cdc565b634e487b7160e01b875260419052602486fd5b61041f91508a3d8c1161021d5761020f8183611611565b50908260031936011261023c576001548251623ca35d60e31b815284916020908290859082906001600160a01b03165afa908115610e5157829182918291610e33575b50478651915af13d15610e2e573d610dd681611632565b90610de385519283611611565b81528460203d92013e5b15610df6575051f35b6020606492519162461bcd60e51b8352820152601360248201527211551217d514905394d1915497d19052531151606a1b6044820152fd5b610ded565b610e4b915060203d811161021d5761020f8183611611565b38610dbf565b84513d84823e3d90fd5b83823461042f578160031936011261042f5780610e94610e8d92848061017f965260036020522082519384809261177a565b0383611611565b519182916020835260208301906116fc565b508234610eda576020366003190112610eda5750610ec761017f9235611cbc565b90519182916020835260208301906116fc565b80fd5b50903461023c5760208060031936011261069a576001600160401b03823581811161069657610f0f903690850161164d565b600180548651623ca35d60e31b808252929593926001600160a01b0392831692909185818a81875afa90811561107c578b9161105f575b50163303611013575050868052600382528587209481519384116103f55750610f7983610f738754611740565b87611810565b81601f8411600114610fb257509282939183928894610fa7575b50501b916000199060031b1c191617905551f35b015192503880610f93565b919083601f198116878a52848a20948a905b88838310610ff95750505010610fe0575b505050811b01905551f35b015160001960f88460031b161c19169055388080610fd5565b858701518855909601959485019487935090810190610fc4565b87879285808c948685518095819382525afa938415610664579361063f575050516347522c7b60e11b81526001600160a01b039091169181019182523360208301529081906040010390fd5b6110769150863d881161021d5761020f8183611611565b38610f46565b8a513d8d823e3d90fd5b83823461042f5761017f90610ec761109d36611694565b916119ad565b508234610eda576020366003190112610eda57506110c3602092356118d3565b90516001600160a01b039091168152f35b5082903461042f578060031936011261042f578235602435936001600160401b03948581116108155761110a903690830161164d565b9060018060a01b0390818654169185518093631d9dabef60e11b8252868483015281602460209687935afa9081156104255790611151929189916112625750163314611864565b83865260038252848620908351978811610d52575061117487610c5e8354611740565b8196601f81116001146111e0578087987fe379c1624ed7e714cc0937528a32359d69d5281337765313dba4e081b72d7578969798916111d5575b508160011b916000199060031b1c19161790555b610afe85519282849384528301906116fc565b9050840151896111ae565b818752828720601f198216885b81811061124b5750907fe379c1624ed7e714cc0937528a32359d69d5281337765313dba4e081b72d757896979899836001949310611232575b5050811b0190556111c2565b86015160001960f88460031b161c191690558980611226565b868b015183559985019960019092019185016111ed565b61041f9150853d871161021d5761020f8183611611565b50903461023c57606036600319011261023c5782548251631d9dabef60e11b81528235818401819052926024803593604435936020939290916001600160a01b03918591849190829085165afa8015611360576112df928a916113495750163314611864565b855190868201908282106001600160401b03831117610b965750865283815281810183815285885260058352868820915182555160019091015584519283528201527f1d6f5e03d3f63eb58751986629a5439baee5079ff04f345becb66e23eb154e46908390a251f35b610bc09150853d871161021d5761020f8183611611565b88513d8b823e3d90fd5b50903461023c57606036600319011261023c5780356001600160401b036024358181116106965761139e90369085016115b3565b90604435838111611533576113b690369087016115b3565b88548851631d9dabef60e11b81528089018890529297919592602092916001600160a01b039084908390602490829085165afa801561152957611402928d916113495750163314611864565b868a5260068252888a20828a51809288888337888201908152030190209286116115165750611435856103078454611740565b8890601f861160011461149d57509084600080516020611f94833981519152959493928a91611492575b508460011b906000198660031b1c19161790555b8187519283928337810188815203902093610557865192839283611985565b90508701353861145f565b90601f198616838b52828b20928b905b8a8383106114fe575050509086600080516020611f94833981519152979695949392106114e4575b5050600184811b019055611473565b880135600019600387901b60f8161c1916905538806114d5565b600185968394968493013581550195019301906114ad565b634e487b7160e01b8a5260419052602489fd5b8b513d8e823e3d90fd5b8780fd5b83823461042f578160031936011261042f5760015490516001600160a01b039091168152602090f35b9250503461023c57602036600319011261023c5760209260ff91906001600160e01b031961158c61159c565b1681526002855220541615158152f35b600435906001600160e01b03198216820361002057565b9181601f84011215610020578235916001600160401b038311610020576020838186019501011161002057565b604081019081106001600160401b038211176115fb57604052565b634e487b7160e01b600052604160045260246000fd5b90601f801991011681019081106001600160401b038211176115fb57604052565b6001600160401b0381116115fb57601f01601f191660200190565b81601f820112156100205780359061166482611632565b926116726040519485611611565b8284526020838301011161002057816000926020809301838601378301015290565b9060406003198301126100205760043591602435906001600160401b038211610020576116c3916004016115b3565b9091565b918091926000905b8282106116e75750116116e0575050565b6000910152565b915080602091830151818601520182916116cf565b90602091611715815180928185528580860191016116c7565b601f01601f1916010190565b9081602091031261002057516001600160a01b03811681036100205790565b90600182811c92168015611770575b602083101461175a57565b634e487b7160e01b600052602260045260246000fd5b91607f169161174f565b906000929180549161178b83611740565b9182825260019384811690816000146117ed57506001146117ad575b50505050565b90919394506000526020928360002092846000945b8386106117d95750505050010190388080806117a7565b8054858701830152940193859082016117c2565b9294505050602093945060ff191683830152151560051b010190388080806117a7565b90601f811161181e57505050565b600091825260208220906020601f850160051c8301941061185a575b601f0160051c01915b82811061184f57505050565b818155600101611843565b909250829061183a565b1561186b57565b60405162461bcd60e51b815260206004820152601860248201527f5265736f6c7665723a204e4f545f415554484f524953454400000000000000006044820152606490fd5b6020815191015190602081106118c4575090565b6000199060200360031b1b1690565b610850906000818152600460205260408120603c82526020526118ff604082206040519485809261177a565b82511561191e57506001600160a01b039161191a91506118b0565b1690565b80546040516302571be360e01b815260048101939093526001600160a01b0393509091906020908290602490829087165afa918215611979579161196157501690565b61191a915060203d811161021d5761020f8183611611565b604051903d90823e3d90fd5b90918060409360208452816020850152848401376000828201840152601f01601f1916010190565b906119e693926000838152602091600683526040936119ed858420858751809286868337868201908152030190208651998a809261177a565b0389611611565b8751156119fc57505050505050565b909180939495969750508035848310611cac575b611a358651611a1e816115e0565b600681526530bb30ba30b960d11b878201526118b0565b03611c7b575050611a4546611dd4565b9360019160018060a01b03835416918290865193606085018581106001600160401b03821117611c67578852602a85528685019588368837855115611c5357603087538551811015611c5357607860218701536029905b808211611be3575050611ba1578590602488518094819363ad5c332760e01b835260048301525afa918215611b96578092611b62575b505092611b50611b359693611b5f9693611aed603097611dd4565b94519889966632b4b8189a9a9d60c91b86890152611b14815180928860278c0191016116c7565b8701916717b2b9319b99189d60c11b6027840152518093602f8401906116c7565b0191602f60f81b602f840152835193849187850191016116c7565b01036010810184520182611611565b90565b9091508482813d8311611b8f575b611b7a8183611611565b81010312610eda575051611b50611b35611ad2565b503d611b70565b8651903d90823e3d90fd5b60648688519062461bcd60e51b825280600483015260248201527f537472696e67733a20686578206c656e67746820696e73756666696369656e746044820152fd5b9091600f81166010811015611c3f578751841015611c3f576f181899199a1a9b1b9c1cb0b131b232b360811b901a8784018a015360041c918015611c2b576000190190611a9c565b634e487b7160e01b86526011600452602486fd5b634e487b7160e01b87526032600452602487fd5b634e487b7160e01b85526032600452602485fd5b634e487b7160e01b85526041600452602485fd5b6108919550848380611b5f97969495526006845220838551948593843782019081520301902090519283809261177a565b60001983860360031b1b16611a10565b90611cf691600081815260209060068252604092611cfd6024858420865190636e616d6560e01b825260048201522085519788809261177a565b0387611611565b855115611d0a5750505050565b9091809394955060018060a01b036001541691602486518094819363ad5c332760e01b835260048301525afa918215611dc9578092611d97575b505082611b5f926805ceed8dce45ccae8d60bb1b602993611d83965193838501918252838552611d73856115e0565b51968794518092858701906116c7565b830191820152036009810184520182611611565b9091508282813d8311611dc2575b611daf8183611611565b81010312610eda57505182611b5f611d44565b503d611da5565b8451903d90823e3d90fd5b809160009160805b600180821115611e29571c918280600a0a80871015611dfe575b505091611ddc565b909194958115611e1357049401923880611df6565b634e487b7160e01b600052601260045260246000fd5b50509290927a184f03e93ff9f4daa797ed6e38ed64bf6a1f01000000000000000080831015611f84575b506d04ee2d6d415b85acef810000000080831015611f75575b50662386f26fc1000080831015611f66575b506305f5e10080831015611f57575b5061271080831015611f48575b506064821015611f38575b600a80921015611f2e575b60019081602181860195611ec387611632565b96611ed16040519889611611565b808852611ee0601f1991611632565b01366020890137860101905b611ef8575b5050505090565b600019019083906f181899199a1a9b1b9c1cb0b131b232b360811b8282061a835304918215611f2957919082611eec565b611ef1565b9160010191611eb0565b9190606460029104910191611ea5565b60049193920491019138611e9a565b60089193920491019138611e8d565b60109193920491019138611e7e565b60209193920491019138611e6c565b60409193920491019138611e5356fe6eac6078c9cee83ab95cf8524ac3a05038fbf02b43e2853ae34aabb45d2820d4a26469706673582212204b328bc60cdea46d22d8dda5dc36a04a426e5a771a86494a139a25ab22ecce4f64736f6c634300080f0033",
    "linkReferences": {}
  },
  "methodIdentifiers": {
    "DefaultContenthash()": "69be8bb0",
    "LNR()": "a4c10bb7",
    "WLNR()": "079e99fc",
    "addr(bytes32)": "3b3b57de",
    "addr(bytes32,uint256)": "f1cb7e06",
    "contenthash(bytes32)": "bc1c58d1",
    "name(bytes32)": "691f3431",
    "pubkey(bytes32)": "c8690233",
    "setAddress(bytes32,address)": "ca446dd9",
    "setAddress(bytes32,uint256,bytes)": "93507f3d",
    "setContenthash(bytes32,bytes)": "304e6ade",
    "setDefaultContenthash(bytes)": "5d81d553",
    "setDefaultText(string,string)": "c9b69059",
    "setInterface(bytes4,bool)": "c0a43a7c",
    "setName(bytes32,string)": "77372213",
    "setPubkey(bytes32,bytes32,bytes32)": "29cd62ea",
    "setText(bytes32,string,string)": "10f13a8c",
    "supportsInterface(bytes4)": "01ffc9a7",
    "text(bytes32,string)": "59d1d43c",
    "withdrawEther()": "7362377b",
    "withdrawToken(address,uint256)": "9e281a98"
  },
  "id": 10
}