{
  "abi": [
    {
      "inputs": [
        {
          "internalType": "address",
          "name": "_wlnr",
          "type": "address"
        }
      ],
      "stateMutability": "nonpayable",
      "type": "constructor"
    },
    {
      "inputs": [
        {
          "internalType": "uint256",
          "name": "id",
          "type": "uint256"
        }
      ],
      "name": "InvalidTokenID",
      "type": "error"
    },
    {
      "inputs": [
        {
          "internalType": "address",
          "name": "owner",
          "type": "address"
        },
        {
          "internalType": "address",
          "name": "from",
          "type": "address"
        },
        {
          "internalType": "uint256",
          "name": "id",
          "type": "uint256"
        }
      ],
      "name": "NotSubdomainOwner",
      "type": "error"
    },
    {
      "inputs": [
        {
          "internalType": "address",
          "name": "_dev",
          "type": "address"
        },
        {
          "internalType": "address",
          "name": "_you",
          "type": "address"
        }
      ],
      "name": "OnlyDev",
      "type": "error"
    },
    {
      "inputs": [
        {
          "internalType": "address",
          "name": "operator",
          "type": "address"
        },
        {
          "internalType": "address",
          "name": "owner",
          "type": "address"
        },
        {
          "internalType": "uint256",
          "name": "id",
          "type": "uint256"
        }
      ],
      "name": "Unauthorized",
      "type": "error"
    },
    {
      "anonymous": false,
      "inputs": [
        {
          "indexed": true,
          "internalType": "bytes32",
          "name": "node",
          "type": "bytes32"
        },
        {
          "indexed": false,
          "internalType": "address",
          "name": "addr",
          "type": "address"
        }
      ],
      "name": "AddressChanged",
      "type": "event"
    },
    {
      "anonymous": false,
      "inputs": [
        {
          "indexed": true,
          "internalType": "bytes32",
          "name": "node",
          "type": "bytes32"
        },
        {
          "indexed": false,
          "internalType": "uint256",
          "name": "coinType",
          "type": "uint256"
        },
        {
          "indexed": false,
          "internalType": "bytes",
          "name": "newAddress",
          "type": "bytes"
        }
      ],
      "name": "AddressChangedForCoin",
      "type": "event"
    },
    {
      "anonymous": false,
      "inputs": [
        {
          "indexed": true,
          "internalType": "bytes32",
          "name": "node",
          "type": "bytes32"
        },
        {
          "indexed": false,
          "internalType": "bytes",
          "name": "_contenthash",
          "type": "bytes"
        }
      ],
      "name": "ContenthashChanged",
      "type": "event"
    },
    {
      "anonymous": false,
      "inputs": [
        {
          "indexed": true,
          "internalType": "bytes32",
          "name": "node",
          "type": "bytes32"
        },
        {
          "indexed": false,
          "internalType": "string",
          "name": "name",
          "type": "string"
        }
      ],
      "name": "NameChanged",
      "type": "event"
    },
    {
      "anonymous": false,
      "inputs": [
        {
          "indexed": true,
          "internalType": "bytes32",
          "name": "node",
          "type": "bytes32"
        },
        {
          "indexed": false,
          "internalType": "bytes32",
          "name": "x",
          "type": "bytes32"
        },
        {
          "indexed": false,
          "internalType": "bytes32",
          "name": "y",
          "type": "bytes32"
        }
      ],
      "name": "PubkeyChanged",
      "type": "event"
    },
    {
      "anonymous": false,
      "inputs": [
        {
          "indexed": true,
          "internalType": "bytes32",
          "name": "node",
          "type": "bytes32"
        },
        {
          "indexed": true,
          "internalType": "string",
          "name": "key",
          "type": "string"
        },
        {
          "indexed": false,
          "internalType": "string",
          "name": "value",
          "type": "string"
        }
      ],
      "name": "TextRecordChanged",
      "type": "event"
    },
    {
      "stateMutability": "payable",
      "type": "fallback"
    },
    {
      "inputs": [],
      "name": "DefaultContenthash",
      "outputs": [
        {
          "internalType": "bytes",
          "name": "",
          "type": "bytes"
        }
      ],
      "stateMutability": "view",
      "type": "function"
    },
    {
      "inputs": [],
      "name": "LNR",
      "outputs": [
        {
          "internalType": "contract iLNR",
          "name": "",
          "type": "address"
        }
      ],
      "stateMutability": "view",
      "type": "function"
    },
    {
      "inputs": [],
      "name": "WLNR",
      "outputs": [
        {
          "internalType": "contract iWLNR",
          "name": "",
          "type": "address"
        }
      ],
      "stateMutability": "view",
      "type": "function"
    },
    {
      "inputs": [
        {
          "internalType": "bytes32",
          "name": "node",
          "type": "bytes32"
        }
      ],
      "name": "addr",
      "outputs": [
        {
          "internalType": "address payable",
          "name": "",
          "type": "address"
        }
      ],
      "stateMutability": "view",
      "type": "function"
    },
    {
      "inputs": [
        {
          "internalType": "bytes32",
          "name": "node",
          "type": "bytes32"
        },
        {
          "internalType": "uint256",
          "name": "coinType",
          "type": "uint256"
        }
      ],
      "name": "addr",
      "outputs": [
        {
          "internalType": "bytes",
          "name": "_addr",
          "type": "bytes"
        }
      ],
      "stateMutability": "view",
      "type": "function"
    },
    {
      "inputs": [
        {
          "internalType": "bytes32",
          "name": "node",
          "type": "bytes32"
        }
      ],
      "name": "contenthash",
      "outputs": [
        {
          "internalType": "bytes",
          "name": "_hash",
          "type": "bytes"
        }
      ],
      "stateMutability": "view",
      "type": "function"
    },
    {
      "inputs": [
        {
          "internalType": "bytes32",
          "name": "node",
          "type": "bytes32"
        }
      ],
      "name": "name",
      "outputs": [
        {
          "internalType": "string",
          "name": "_name",
          "type": "string"
        }
      ],
      "stateMutability": "view",
      "type": "function"
    },
    {
      "inputs": [
        {
          "internalType": "bytes32",
          "name": "",
          "type": "bytes32"
        }
      ],
      "name": "pubkey",
      "outputs": [
        {
          "internalType": "bytes32",
          "name": "x",
          "type": "bytes32"
        },
        {
          "internalType": "bytes32",
          "name": "y",
          "type": "bytes32"
        }
      ],
      "stateMutability": "view",
      "type": "function"
    },
    {
      "inputs": [
        {
          "internalType": "bytes32",
          "name": "node",
          "type": "bytes32"
        },
        {
          "internalType": "uint256",
          "name": "coinType",
          "type": "uint256"
        },
        {
          "internalType": "bytes",
          "name": "_addr",
          "type": "bytes"
        }
      ],
      "name": "setAddress",
      "outputs": [],
      "stateMutability": "nonpayable",
      "type": "function"
    },
    {
      "inputs": [
        {
          "internalType": "bytes32",
          "name": "node",
          "type": "bytes32"
        },
        {
          "internalType": "address",
          "name": "_addr",
          "type": "address"
        }
      ],
      "name": "setAddress",
      "outputs": [],
      "stateMutability": "nonpayable",
      "type": "function"
    },
    {
      "inputs": [
        {
          "internalType": "bytes32",
          "name": "node",
          "type": "bytes32"
        },
        {
          "internalType": "bytes",
          "name": "_hash",
          "type": "bytes"
        }
      ],
      "name": "setContenthash",
      "outputs": [],
      "stateMutability": "nonpayable",
      "type": "function"
    },
    {
      "inputs": [
        {
          "internalType": "bytes",
          "name": "_content",
          "type": "bytes"
        }
      ],
      "name": "setDefaultContenthash",
      "outputs": [],
      "stateMutability": "nonpayable",
      "type": "function"
    },
    {
      "inputs": [
        {
          "internalType": "string",
          "name": "key",
          "type": "string"
        },
        {
          "internalType": "string",
          "name": "value",
          "type": "string"
        }
      ],
      "name": "setDefaultText",
      "outputs": [],
      "stateMutability": "nonpayable",
      "type": "function"
    },
    {
      "inputs": [
        {
          "internalType": "bytes4",
          "name": "sig",
          "type": "bytes4"
        },
        {
          "internalType": "bool",
          "name": "value",
          "type": "bool"
        }
      ],
      "name": "setInterface",
      "outputs": [],
      "stateMutability": "payable",
      "type": "function"
    },
    {
      "inputs": [
        {
          "internalType": "bytes32",
          "name": "node",
          "type": "bytes32"
        },
        {
          "internalType": "string",
          "name": "_name",
          "type": "string"
        }
      ],
      "name": "setName",
      "outputs": [],
      "stateMutability": "nonpayable",
      "type": "function"
    },
    {
      "inputs": [
        {
          "internalType": "bytes32",
          "name": "node",
          "type": "bytes32"
        },
        {
          "internalType": "bytes32",
          "name": "x",
          "type": "bytes32"
        },
        {
          "internalType": "bytes32",
          "name": "y",
          "type": "bytes32"
        }
      ],
      "name": "setPubkey",
      "outputs": [],
      "stateMutability": "nonpayable",
      "type": "function"
    },
    {
      "inputs": [
        {
          "internalType": "bytes32",
          "name": "node",
          "type": "bytes32"
        },
        {
          "internalType": "string",
          "name": "key",
          "type": "string"
        },
        {
          "internalType": "string",
          "name": "value",
          "type": "string"
        }
      ],
      "name": "setText",
      "outputs": [],
      "stateMutability": "nonpayable",
      "type": "function"
    },
    {
      "inputs": [
        {
          "internalType": "bytes4",
          "name": "",
          "type": "bytes4"
        }
      ],
      "name": "supportsInterface",
      "outputs": [
        {
          "internalType": "bool",
          "name": "",
          "type": "bool"
        }
      ],
      "stateMutability": "view",
      "type": "function"
    },
    {
      "inputs": [
        {
          "internalType": "bytes32",
          "name": "node",
          "type": "bytes32"
        },
        {
          "internalType": "string",
          "name": "key",
          "type": "string"
        }
      ],
      "name": "text",
      "outputs": [
        {
          "internalType": "string",
          "name": "value",
          "type": "string"
        }
      ],
      "stateMutability": "view",
      "type": "function"
    },
    {
      "inputs": [],
      "name": "withdrawEther",
      "outputs": [],
      "stateMutability": "payable",
      "type": "function"
    },
    {
      "inputs": [
        {
          "internalType": "address",
          "name": "token",
          "type": "address"
        },
        {
          "internalType": "uint256",
          "name": "value",
          "type": "uint256"
        }
      ],
      "name": "withdrawToken",
      "outputs": [],
      "stateMutability": "payable",
      "type": "function"
    },
    {
      "stateMutability": "payable",
      "type": "receive"
    }
  ],
  "bytecode": {
    "object": "0x608034620001dd57601f620026f138819003918201601f1916830192916001600160401b03841183851017620001e25780839260409586528339602092839181010312620001dd57516001600160a01b0381169190829003620001dd57600180546001600160a01b03199081169093178155600080549093166e0c2e074ec69a0dfb2997ba6c7d2e1e178355631d9dabef60e11b835260028252838320805460ff19908116831790915563bc1c58d160e01b8452848420805482168317905563c869023360e01b84528484208054821683179055631674750f60e21b8452848420805482168317905563691f343160e01b845284842080548216831790556378e5bf0360e11b845284842080549091168217905582805260038252838320805491939180851c9085168015620001d2575b84821014620001be57601f81116200018d575b50605581558152207fe5010172002408011220a7448dcfc00e746c22e238de5c1e3b6fb97bae0949e48155697741b4e0ae8e929abd4f60b01b910155516124f89081620001f98239f35b818352846002601f868620930160051c830192015b828110620001b257505062000143565b848155018590620001a2565b634e487b7160e01b83526022600452602483fd5b90607f169062000130565b600080fd5b634e487b7160e01b600052604160045260246000fdfe6080604081815260049081361015610025575b505050361561002057600080fd5b600080fd5b600092833560e01c90816301ffc9a7146118ed57508063079e99fc146118b857806310f13a8c146116a557806329cd62ea14611591578063304e6ade146113c55780633b3b57de1461138857806359d1d43c1461136b5780635d81d55314611173578063691f34311461113c57806369be8bb0146110f15780637362377b14610fca5780637737221314610dd757806393507f3d14610bd65780639e281a9814610a47578063a4c10bb714610a14578063bc1c58d11461098e578063c0a43a7c146107a8578063c869023314610776578063c9b690591461049d578063ca446dd9146102735763f1cb7e0603610012573461026f578060031936011261026f5761015292823592602435938083526020948286528484208185528652610159858520865198898092611b37565b03886119cf565b8651159081610264575b50610183575b50505061017f9051928284938452830190611aac565b0390f35b829550602473ffffffffffffffffffffffffffffffffffffffff8695969394541693865194859384927f02571be30000000000000000000000000000000000000000000000000000000084528301525afa9081156102575761017f9293949161022a575b507fffffffffffffffffffffffffffffffffffffffff00000000000000000000000084519160601b1683820152601481526102218161199d565b92903880610169565b61024a9150833d8511610250575b61024281836119cf565b810190611ad1565b386101e7565b503d610238565b50505051903d90823e3d90fd5b603c91501438610163565b8280fd5b5082903461049957806003193601126104995782356024359373ffffffffffffffffffffffffffffffffffffffff9081861690818703610020578286541692855180947f3b3b57de000000000000000000000000000000000000000000000000000000008252868483015281602460209788935afa90811561048f579061030592918991610472575b50163314611c40565b7fffffffffffffffffffffffffffffffffffffffff00000000000000000000000085519760601b16838801526014875261033e8761199d565b838652808352848620603c875283528486209087519067ffffffffffffffff821161045f5750610378816103728454611afd565b84611bec565b83601f82116001146103da57819088997fce9745511e6b32283e684acf17f26ee2c5d221bf65c95e61c3d6fcfa446462d0979899926103cf575b50506000198260011b9260031b1c19161790555b8451908152a251f35b0151905089806103b2565b82885284882098601f198316895b8181106104485750917fce9745511e6b32283e684acf17f26ee2c5d221bf65c95e61c3d6fcfa446462d09798999a9184600195941061042f575b505050811b0190556103c6565b015160001960f88460031b161c19169055898080610422565b838301518c556001909b019a9287019287016103e8565b876041602492634e487b7160e01b835252fd5b6104899150863d88116102505761024281836119cf565b8a6102fc565b87513d8a823e3d90fd5b5080fd5b5082903461049957806003193601126104995767ffffffffffffffff8335818111610772576104cf903690860161196f565b60249291923582811161076e576104e9903690880161196f565b91909373ffffffffffffffffffffffffffffffffffffffff936001858154168851967f01e51ae80000000000000000000000000000000000000000000000000000000090818952888d60209a8b9181875afa908115610764578d91610747575b501633036106a0575050888052600686528789208689518092878783378782019081520301902091851161068d57908493929161058b8a966103728454611afd565b8596601f8611600114610608575084809187987f6eac6078c9cee83ab95cf8524ac3a05038fbf02b43e2853ae34aabb45d2820d498936105fd575b501b906000198660031b1c19161790555b8187519283928337810160008152039020936105f7865192839283611da7565b0390a351f35b8a013592508c6105c6565b601f198616978388528188209188905b8b8b831061067457505050867f6eac6078c9cee83ab95cf8524ac3a05038fbf02b43e2853ae34aabb45d2820d498991061065a575b505084811b0190556105d7565b60001960f88860031b161c19908a01351690558a8061064d565b83013584558d9950928401929182019190810190610618565b60248960418c634e487b7160e01b835252fd5b898c9289808e948685518095819382525afa93841561073c5793610717575b5050517f8ea458f600000000000000000000000000000000000000000000000000000000815273ffffffffffffffffffffffffffffffffffffffff9091169181019182523360208301529081906040010390fd5b0390fd5b610713929350908161073492903d106102505761024281836119cf565b9190846106bf565b8351903d90823e3d90fd5b61075e91508a3d8c116102505761024281836119cf565b8e610549565b8c513d8f823e3d90fd5b8580fd5b8380fd5b50903461026f57602060031936011261026f579181923581526005602052206001815491015482519182526020820152f35b50908160031936011261026f576107bd611940565b906024359182151580930361098a5773ffffffffffffffffffffffffffffffffffffffff9182600154168551937f01e51ae8000000000000000000000000000000000000000000000000000000009081865260209586818681875afa908115610980578a91610963575b501633036108f25750507fffffffff000000000000000000000000000000000000000000000000000000008092169182146108965750906002918552528183209060ff7fffffffffffffffffffffffffffffffffffffffffffffffffffffffffffffff00835416911617905551f35b606490838651917f08c379a0000000000000000000000000000000000000000000000000000000008352820152601a60248201527f494e56414c49445f494e544552464143455f53454c4543544f520000000000006044820152fd5b8791858089938685518095819382525afa93841561073c5793610717575050517f8ea458f600000000000000000000000000000000000000000000000000000000815273ffffffffffffffffffffffffffffffffffffffff9091169181019182523360208301529081906040010390fd5b61097a9150873d89116102505761024281836119cf565b38610827565b89513d8c823e3d90fd5b8480fd5b50903461026f57602060031936011261026f5790826109c59261017f945035815260036020526109cc828220835194858092611b37565b03846119cf565b8251156109e7575b5051918291602083526020830190611aac565b81610a069293508180610a0d9352600360205220835192838092611b37565b03826119cf565b90386109d4565b83823461049957816003193601126104995773ffffffffffffffffffffffffffffffffffffffff60209254169051908152f35b509190826003193601126104995780359073ffffffffffffffffffffffffffffffffffffffff80831680930361077257308314610b795781602082600154168751928380927f01e51ae80000000000000000000000000000000000000000000000000000000082525afa908115610b6f578591610b51575b50833b1561098a57906064859283885196879485937f23b872dd000000000000000000000000000000000000000000000000000000008552308986015216602484015260243560448401525af18015610b4757610b1b57828451f35b67ffffffffffffffff8211610b34575082523880828451f35b826041602492634e487b7160e01b835252fd5b84513d85823e3d90fd5b610b69915060203d81116102505761024281836119cf565b38610abf565b86513d87823e3d90fd5b60648260208751917f08c379a0000000000000000000000000000000000000000000000000000000008352820152600e60248201527f575241505045525f4c4f434b45440000000000000000000000000000000000006044820152fd5b50903461026f57606060031936011261026f578035906024356044359167ffffffffffffffff92838111610dd357610c119036908301611a0e565b9073ffffffffffffffffffffffffffffffffffffffff938488541687519586917f3b3b57de00000000000000000000000000000000000000000000000000000000835288858401528260246020998a935afa801561098057610c7c928b91610db65750163314611c40565b8588528185528688208489528552868820918351918211610da35750610ca6816103728454611afd565b84601f8211600114610d1c5791817f8ea940b63ed2d74b35182a4212f17b597449038537c7685f96e28e8fb20a575d96959492610d0b948b91610d11575b506000198260011b9260031b1c19161790555b868051948594855284015286830190611aac565b0390a251f35b905083015138610ce4565b82895285892090601f1983168a5b818110610d8c575092610d0b9492600192827f8ea940b63ed2d74b35182a4212f17b597449038537c7685f96e28e8fb20a575d9a99989610610d73575b5050811b019055610cf7565b85015160001960f88460031b161c191690553880610d67565b91928860018192868a015181550194019201610d2a565b886041602492634e487b7160e01b835252fd5b610dcd9150883d8a116102505761024281836119cf565b386102fc565b8680fd5b5082903461049957610de836611a55565b9073ffffffffffffffffffffffffffffffffffffffff958686541696855180987f3b3b57de000000000000000000000000000000000000000000000000000000008252868483015281602460209b8c935afa90811561048f5790610e5692918991610fb35750163314611c40565b8386526006875260248587208651907f6e616d6500000000000000000000000000000000000000000000000000000000825283820152209067ffffffffffffffff8411610fa05750610eb283610eac8354611afd565b83611bec565b8596601f8411600114610f1a57508286977fb7d29e911041e8d9b843369e890bcb72c9388692ba48b65ac54e7214c4c348f795969791610f0f575b508360011b906000198560031b1c19161790555b610d0b855192839283611da7565b905082013588610eed565b601f198416978288528188209188905b8a8210610f88575050847fb7d29e911041e8d9b843369e890bcb72c9388692ba48b65ac54e7214c4c348f79697989910610f6e575b5050600183811b019055610f01565b60001960f88660031b161c19908401351690558780610f5f565b80600184958294958901358155019401920190610f2a565b866041602492634e487b7160e01b835252fd5b61048991508a3d8c116102505761024281836119cf565b50908260031936011261026f578281602073ffffffffffffffffffffffffffffffffffffffff600154168551928380927f01e51ae80000000000000000000000000000000000000000000000000000000082525afa9081156110e7578291829182916110c9575b50478651915af13d156110c4573d611048816119f2565b90611055855192836119cf565b81528460203d92013e5b15611068575051f35b602060649251917f08c379a0000000000000000000000000000000000000000000000000000000008352820152601360248201527f4554485f5452414e534645525f4641494c4544000000000000000000000000006044820152fd5b61105f565b6110e1915060203d81116102505761024281836119cf565b38611031565b84513d84823e3d90fd5b8382346104995781600319360112610499578061112a61112392848061017f9652600360205220825193848092611b37565b03836119cf565b51918291602083526020830190611aac565b508234611170576020600319360112611170575061115d61017f923561218b565b9051918291602083526020830190611aac565b80fd5b50903461026f576020806003193601126107725767ffffffffffffffff90823582811161076e576111a79036908501611a0e565b9073ffffffffffffffffffffffffffffffffffffffff9160019280845416908751907f01e51ae8000000000000000000000000000000000000000000000000000000009182815285818a81875afa908115611361578b91611344575b501633036112d25750508680526003825285872094815194851161045f5750611236846112308754611afd565b87611bec565b81601f851160011461126f57508691849182611262575b505060001991921b9260031b1c191617905551f35b015191506000193861124d565b919084601f1981959616878a52848a20948a905b888383106112b8575050501061129f575b505050811b01905551f35b015160001960f88460031b161c19169055388080611294565b858701518855909601959485019487935090810190611283565b87879285808c948685518095819382525afa93841561073c5793610717575050517f8ea458f600000000000000000000000000000000000000000000000000000000815273ffffffffffffffffffffffffffffffffffffffff9091169181019182523360208301529081906040010390fd5b61135b9150863d88116102505761024281836119cf565b38611203565b8a513d8d823e3d90fd5b8382346104995761017f9061115d61138236611a55565b91611dcf565b508234611170576020600319360112611170575073ffffffffffffffffffffffffffffffffffffffff6113bd60209335611cc8565b915191168152f35b5082903461049957806003193601126104995782356024359367ffffffffffffffff9485811161098a576113fc9036908301611a0e565b9073ffffffffffffffffffffffffffffffffffffffff908186541691855180937f3b3b57de000000000000000000000000000000000000000000000000000000008252868483015281602460209687935afa90811561048f579061146a9291899161157a5750163314611c40565b83865260038252848620908351978811610fa0575061148d87610eac8354611afd565b8196601f81116001146114f8578087987fe379c1624ed7e714cc0937528a32359d69d5281337765313dba4e081b72d7578969798916114ed575b506000198260011b9260031b1c19161790555b610d0b8551928284938452830190611aac565b9050840151896114c7565b818752828720601f198216885b8181106115635750907fe379c1624ed7e714cc0937528a32359d69d5281337765313dba4e081b72d75789697989983600194931061154a575b5050811b0190556114da565b86015160001960f88460031b161c19169055898061153e565b868b01518355998501996001909201918501611505565b6104899150853d87116102505761024281836119cf565b50903461026f57606060031936011261026f57803590602435906044359073ffffffffffffffffffffffffffffffffffffffff908187541686519283917f3b3b57de000000000000000000000000000000000000000000000000000000008352878484015282602460209687935afa801561169b57611619928a916116845750163314611c40565b8551908682019082821067ffffffffffffffff831117610da35750865283815281810183815285885260058352868820915182555160019091015584519283528201527f1d6f5e03d3f63eb58751986629a5439baee5079ff04f345becb66e23eb154e46908390a251f35b610dcd9150853d87116102505761024281836119cf565b88513d8b823e3d90fd5b50903461026f57606060031936011261026f57803567ffffffffffffffff60243581811161076e576116da903690850161196f565b906044358381116118b4576116f2903690870161196f565b93909573ffffffffffffffffffffffffffffffffffffffff90818a541689519283917f3b3b57de000000000000000000000000000000000000000000000000000000008352898484015282602460209687935afa80156118aa5761175f928d916116845750163314611c40565b868a5260068252888a20828a51809288888337888201908152030190209286116118975750611792856103728454611afd565b8890601f861160011461180c575090847f6eac6078c9cee83ab95cf8524ac3a05038fbf02b43e2853ae34aabb45d2820d4959493928a91611801575b508460011b906000198660031b1c19161790555b81875192839283378101888152039020936105f7865192839283611da7565b9050870135386117ce565b90601f198616838b52828b20928b905b8a83831061187f5750505090867f6eac6078c9cee83ab95cf8524ac3a05038fbf02b43e2853ae34aabb45d2820d497969594939210611865575b5050600184811b0190556117e2565b60001960f88760031b161c19908901351690553880611856565b6001859683949684930135815501950193019061181c565b896041602492634e487b7160e01b835252fd5b8b513d8e823e3d90fd5b8780fd5b83823461049957816003193601126104995760209073ffffffffffffffffffffffffffffffffffffffff600154169051908152f35b9250503461026f57602060031936011261026f5760ff906020937fffffffff00000000000000000000000000000000000000000000000000000000611930611940565b1681526002855220541615158152f35b600435907fffffffff000000000000000000000000000000000000000000000000000000008216820361002057565b9181601f840112156100205782359167ffffffffffffffff8311610020576020838186019501011161002057565b6040810190811067ffffffffffffffff8211176119b957604052565b634e487b7160e01b600052604160045260246000fd5b90601f601f19910116810190811067ffffffffffffffff8211176119b957604052565b67ffffffffffffffff81116119b957601f01601f191660200190565b81601f8201121561002057803590611a25826119f2565b92611a3360405194856119cf565b8284526020838301011161002057816000926020809301838601378301015290565b90604060031983011261002057600435916024359067ffffffffffffffff821161002057611a859160040161196f565b9091565b60005b838110611a9c5750506000910152565b8181015183820152602001611a8c565b90601f19601f602093611aca81518092818752878088019101611a89565b0116010190565b90816020910312610020575173ffffffffffffffffffffffffffffffffffffffff811681036100205790565b90600182811c92168015611b2d575b6020831014611b1757565b634e487b7160e01b600052602260045260246000fd5b91607f1691611b0c565b9060009291805491611b4883611afd565b918282526001938481169081600014611baa5750600114611b6a575b50505050565b90919394506000526020928360002092846000945b838610611b96575050505001019038808080611b64565b805485870183015294019385908201611b7f565b91505060209495507fffffffffffffffffffffffffffffffffffffffffffffffffffffffffffffff009193501683830152151560051b01019038808080611b64565b90601f8111611bfa57505050565b600091825260208220906020601f850160051c83019410611c36575b601f0160051c01915b828110611c2b57505050565b818155600101611c1f565b9092508290611c16565b15611c4757565b60646040517f08c379a000000000000000000000000000000000000000000000000000000000815260206004820152600e60248201527f4e4f545f415554484f52495345440000000000000000000000000000000000006044820152fd5b602081519101519060208110611cb9575090565b6000199060200360031b1b1690565b6109c5906000818152600460205260408120603c8252602052611cf46040822060405194858092611b37565b825115611d1f575050611d1b73ffffffffffffffffffffffffffffffffffffffff91611ca5565b1690565b90915073ffffffffffffffffffffffffffffffffffffffff91602083835416916024604051809481937f02571be300000000000000000000000000000000000000000000000000000000835260048301525afa918215611d9b5791611d8357501690565b611d1b915060203d81116102505761024281836119cf565b604051903d90823e3d90fd5b90601f83604094601f1993602086528160208701528686013760008582860101520116010190565b90611e089392600083815260209160068352604093611e0f858420858751809286868337868201908152030190208651998a8092611b37565b03896119cf565b875115611e1e57505050505050565b90918093949596975050803584831061217b575b611e6e8651611e408161199d565b600681527f617661746172000000000000000000000000000000000000000000000000000087820152611ca5565b0361214a575050611e7e466122f7565b9360019173ffffffffffffffffffffffffffffffffffffffff8354169182908651936060850185811067ffffffffffffffff821117612136578852602a855286850195883688378551156121225760308753855181101561212257607860218701536029905b8082116120a557505061204957859060248851809481937fa37f9f9900000000000000000000000000000000000000000000000000000000835260048301525afa91821561203e57809261200a575b505092611ff8611fc196936120079693611f4e6030976122f7565b94519889967f6569703135353a0000000000000000000000000000000000000000000000000086890152611f8b815180928860278c019101611a89565b8701917f2f6572633732313a0000000000000000000000000000000000000000000000006027840152518093602f840190611a89565b01917f2f00000000000000000000000000000000000000000000000000000000000000602f84015283519384918785019101611a89565b010360108101845201826119cf565b90565b9091508482813d8311612037575b61202281836119cf565b81010312611170575051611ff8611fc1611f33565b503d612018565b8651903d90823e3d90fd5b6064868851907f08c379a000000000000000000000000000000000000000000000000000000000825280600483015260248201527f537472696e67733a20686578206c656e67746820696e73756666696369656e746044820152fd5b9091600f8116601081101561210e57875184101561210e577f3031323334353637383961626364656600000000000000000000000000000000901a89848901015360041c9180156120fa576000190190611ee4565b602486634e487b7160e01b81526011600452fd5b602487634e487b7160e01b81526032600452fd5b602485634e487b7160e01b81526032600452fd5b602485634e487b7160e01b81526041600452fd5b610a069550848380612007979694955260068452208385519485938437820190815203019020905192838092611b37565b60001983860360031b1b16611e32565b906121de916000818152602090600682526040926121e560248584208651907f6e616d65000000000000000000000000000000000000000000000000000000008252600482015220855197888092611b37565b03876119cf565b8551156121f25750505050565b9091809394955073ffffffffffffffffffffffffffffffffffffffff600154169160248651809481937fa37f9f9900000000000000000000000000000000000000000000000000000000835260048301525afa9182156122ec5780926122ba575b505082612007927f2e776c6e722e65746800000000000000000000000000000000000000000000006029936122a69651938385019182528385526122968561199d565b5196879451809285870190611a89565b8301918201520360098101845201826119cf565b9091508282813d83116122e5575b6122d281836119cf565b8101031261117057505182612007612253565b503d6122c8565b8451903d90823e3d90fd5b809160009160805b60018082111561234c571c918280600a0a80871015612321575b5050916122ff565b90919495811561233657049401923880612319565b634e487b7160e01b600052601260045260246000fd5b50509290927a184f03e93ff9f4daa797ed6e38ed64bf6a1f010000000000000000808310156124b3575b506d04ee2d6d415b85acef8100000000808310156124a4575b50662386f26fc1000080831015612495575b506305f5e10080831015612486575b5061271080831015612477575b506064821015612467575b600a8092101561245d575b60019081602181860195601f196124026123ec896119f2565b986123fa6040519a8b6119cf565b808a526119f2565b01366020890137860101905b61241a575b5050505090565b600019849101917f30313233343536373839616263646566000000000000000000000000000000008282061a8353049182156124585791908261240e565b612413565b91600101916123d3565b91906064600291049101916123c8565b600491939204910191386123bd565b600891939204910191386123b0565b601091939204910191386123a1565b6020919392049101913861238f565b6040919392049101913861237656fea2646970667358221220a9a6d1a6ac89d715a16dc85645c7ac8d5dfc69406e00e82242983fa6efc521b064736f6c63430008100033",
    "linkReferences": {}
  },
  "methodIdentifiers": {
    "DefaultContenthash()": "69be8bb0",
    "LNR()": "a4c10bb7",
    "WLNR()": "079e99fc",
    "addr(bytes32)": "3b3b57de",
    "addr(bytes32,uint256)": "f1cb7e06",
    "contenthash(bytes32)": "bc1c58d1",
    "name(bytes32)": "691f3431",
    "pubkey(bytes32)": "c8690233",
    "setAddress(bytes32,address)": "ca446dd9",
    "setAddress(bytes32,uint256,bytes)": "93507f3d",
    "setContenthash(bytes32,bytes)": "304e6ade",
    "setDefaultContenthash(bytes)": "5d81d553",
    "setDefaultText(string,string)": "c9b69059",
    "setInterface(bytes4,bool)": "c0a43a7c",
    "setName(bytes32,string)": "77372213",
    "setPubkey(bytes32,bytes32,bytes32)": "29cd62ea",
    "setText(bytes32,string,string)": "10f13a8c",
    "supportsInterface(bytes4)": "01ffc9a7",
    "text(bytes32,string)": "59d1d43c",
    "withdrawEther()": "7362377b",
    "withdrawToken(address,uint256)": "9e281a98"
  },
  "id": 3
}